{"abi":[{"type":"constructor","inputs":[{"name":"_tempoChainId","type":"uint64","internalType":"uint64"},{"name":"_initialEpoch","type":"uint64","internalType":"uint64"}],"stateMutability":"nonpayable"},{"type":"function","name":"HEADER_DOMAIN","inputs":[],"outputs":[{"name":"","type":"bytes32","internalType":"bytes32"}],"stateMutability":"view"},{"type":"function","name":"ROTATION_DOMAIN","inputs":[],"outputs":[{"name":"","type":"bytes32","internalType":"bytes32"}],"stateMutability":"view"},{"type":"function","name":"acceptOwnership","inputs":[],"outputs":[],"stateMutability":"nonpayable"},{"type":"function","name":"addValidator","inputs":[{"name":"validator","type":"address","internalType":"address"}],"outputs":[],"stateMutability":"nonpayable"},{"type":"function","name":"blsPublicKey","inputs":[],"outputs":[{"name":"","type":"bytes","internalType":"bytes"}],"stateMutability":"view"},{"type":"function","name":"currentEpoch","inputs":[],"outputs":[{"name":"","type":"uint64","internalType":"uint64"}],"stateMutability":"view"},{"type":"function","name":"currentPublicKey","inputs":[],"outputs":[{"name":"","type":"bytes","internalType":"bytes"}],"stateMutability":"view"},{"type":"function","name":"finalizedAt","inputs":[{"name":"","type":"uint64","internalType":"uint64"}],"outputs":[{"name":"","type":"uint256","internalType":"uint256"}],"stateMutability":"view"},{"type":"function","name":"getReceiptsRoot","inputs":[{"name":"height","type":"uint64","internalType":"uint64"}],"outputs":[{"name":"","type":"bytes32","internalType":"bytes32"}],"stateMutability":"view"},{"type":"function","name":"headerHashes","inputs":[{"name":"","type":"uint64","internalType":"uint64"}],"outputs":[{"name":"","type":"bytes32","internalType":"bytes32"}],"stateMutability":"view"},{"type":"function","name":"isBLSAvailable","inputs":[],"outputs":[{"name":"","type":"bool","internalType":"bool"}],"stateMutability":"view"},{"type":"function","name":"isHeaderFinalized","inputs":[{"name":"height","type":"uint64","internalType":"uint64"}],"outputs":[{"name":"","type":"bool","internalType":"bool"}],"stateMutability":"view"},{"type":"function","name":"isValidator","inputs":[{"name":"","type":"address","internalType":"address"}],"outputs":[{"name":"","type":"bool","internalType":"bool"}],"stateMutability":"view"},{"type":"function","name":"latestFinalizedHeight","inputs":[],"outputs":[{"name":"","type":"uint64","internalType":"uint64"}],"stateMutability":"view"},{"type":"function","name":"owner","inputs":[],"outputs":[{"name":"","type":"address","internalType":"address"}],"stateMutability":"view"},{"type":"function","name":"pendingOwner","inputs":[],"outputs":[{"name":"","type":"address","internalType":"address"}],"stateMutability":"view"},{"type":"function","name":"receiptsRoots","inputs":[{"name":"","type":"uint64","internalType":"uint64"}],"outputs":[{"name":"","type":"bytes32","internalType":"bytes32"}],"stateMutability":"view"},{"type":"function","name":"removeValidator","inputs":[{"name":"validator","type":"address","internalType":"address"}],"outputs":[],"stateMutability":"nonpayable"},{"type":"function","name":"renounceOwnership","inputs":[],"outputs":[],"stateMutability":"nonpayable"},{"type":"function","name":"setBLSPublicKey","inputs":[{"name":"_blsPublicKey","type":"bytes","internalType":"bytes"}],"outputs":[],"stateMutability":"nonpayable"},{"type":"function","name":"setSignatureMode","inputs":[{"name":"_useEcdsaMode","type":"bool","internalType":"bool"}],"outputs":[],"stateMutability":"nonpayable"},{"type":"function","name":"submitBLSKeyRotation","inputs":[{"name":"newEpoch","type":"uint64","internalType":"uint64"},{"name":"newBLSPublicKey","type":"bytes","internalType":"bytes"},{"name":"blsSignature","type":"bytes","internalType":"bytes"}],"outputs":[],"stateMutability":"nonpayable"},{"type":"function","name":"submitHeader","inputs":[{"name":"height","type":"uint64","internalType":"uint64"},{"name":"parentHash","type":"bytes32","internalType":"bytes32"},{"name":"stateRoot","type":"bytes32","internalType":"bytes32"},{"name":"receiptsRoot","type":"bytes32","internalType":"bytes32"},{"name":"epoch","type":"uint64","internalType":"uint64"},{"name":"signatures","type":"bytes[]","internalType":"bytes[]"}],"outputs":[],"stateMutability":"nonpayable"},{"type":"function","name":"submitHeader","inputs":[{"name":"height","type":"uint64","internalType":"uint64"},{"name":"parentHash","type":"bytes32","internalType":"bytes32"},{"name":"stateRoot","type":"bytes32","internalType":"bytes32"},{"name":"receiptsRoot","type":"bytes32","internalType":"bytes32"},{"name":"epoch","type":"uint64","internalType":"uint64"},{"name":"signature","type":"bytes","internalType":"bytes"}],"outputs":[],"stateMutability":"nonpayable"},{"type":"function","name":"submitKeyRotation","inputs":[{"name":"newEpoch","type":"uint64","internalType":"uint64"},{"name":"newPublicKey","type":"bytes","internalType":"bytes"},{"name":"signatures","type":"bytes[]","internalType":"bytes[]"}],"outputs":[],"stateMutability":"nonpayable"},{"type":"function","name":"tempoChainId","inputs":[],"outputs":[{"name":"","type":"uint64","internalType":"uint64"}],"stateMutability":"view"},{"type":"function","name":"threshold","inputs":[],"outputs":[{"name":"","type":"uint256","internalType":"uint256"}],"stateMutability":"view"},{"type":"function","name":"transferOwnership","inputs":[{"name":"newOwner","type":"address","internalType":"address"}],"outputs":[],"stateMutability":"nonpayable"},{"type":"function","name":"useEcdsaMode","inputs":[],"outputs":[{"name":"","type":"bool","internalType":"bool"}],"stateMutability":"view"},{"type":"function","name":"validatorCount","inputs":[],"outputs":[{"name":"","type":"uint256","internalType":"uint256"}],"stateMutability":"view"},{"type":"function","name":"validators","inputs":[{"name":"","type":"uint256","internalType":"uint256"}],"outputs":[{"name":"","type":"address","internalType":"address"}],"stateMutability":"view"},{"type":"event","name":"BLSPublicKeyUpdated","inputs":[{"name":"epoch","type":"uint64","indexed":true,"internalType":"uint64"},{"name":"blsKey","type":"bytes","indexed":false,"internalType":"bytes"}],"anonymous":false},{"type":"event","name":"HeaderSubmitted","inputs":[{"name":"height","type":"uint64","indexed":true,"internalType":"uint64"},{"name":"headerHash","type":"bytes32","indexed":false,"internalType":"bytes32"},{"name":"receiptsRoot","type":"bytes32","indexed":false,"internalType":"bytes32"}],"anonymous":false},{"type":"event","name":"KeyRotated","inputs":[{"name":"newEpoch","type":"uint64","indexed":true,"internalType":"uint64"},{"name":"newPublicKey","type":"bytes","indexed":false,"internalType":"bytes"}],"anonymous":false},{"type":"event","name":"OwnershipTransferStarted","inputs":[{"name":"previousOwner","type":"address","indexed":true,"internalType":"address"},{"name":"newOwner","type":"address","indexed":true,"internalType":"address"}],"anonymous":false},{"type":"event","name":"OwnershipTransferred","inputs":[{"name":"previousOwner","type":"address","indexed":true,"internalType":"address"},{"name":"newOwner","type":"address","indexed":true,"internalType":"address"}],"anonymous":false},{"type":"event","name":"SignatureModeChanged","inputs":[{"name":"useEcdsa","type":"bool","indexed":false,"internalType":"bool"}],"anonymous":false},{"type":"event","name":"ValidatorAdded","inputs":[{"name":"validator","type":"address","indexed":true,"internalType":"address"}],"anonymous":false},{"type":"event","name":"ValidatorRemoved","inputs":[{"name":"validator","type":"address","indexed":true,"internalType":"address"}],"anonymous":false},{"type":"error","name":"BLSHashToG1Failed","inputs":[]},{"type":"error","name":"BLSInvalidPublicKeyLength","inputs":[]},{"type":"error","name":"BLSInvalidSignatureLength","inputs":[]},{"type":"error","name":"BLSPrecompileCallFailed","inputs":[]},{"type":"error","name":"BLSPrecompilesNotAvailable","inputs":[]},{"type":"error","name":"BLSVerificationFailed","inputs":[]},{"type":"error","name":"ECDSAInvalidSignature","inputs":[]},{"type":"error","name":"ECDSAInvalidSignatureLength","inputs":[{"name":"length","type":"uint256","internalType":"uint256"}]},{"type":"error","name":"ECDSAInvalidSignatureS","inputs":[{"name":"s","type":"bytes32","internalType":"bytes32"}]},{"type":"error","name":"HeightNotMonotonic","inputs":[]},{"type":"error","name":"InvalidBLSPublicKeyLength","inputs":[]},{"type":"error","name":"InvalidBLSSignatureLength","inputs":[]},{"type":"error","name":"InvalidParentHash","inputs":[]},{"type":"error","name":"InvalidSignature","inputs":[]},{"type":"error","name":"InvalidSignatureCount","inputs":[]},{"type":"error","name":"OwnableInvalidOwner","inputs":[{"name":"owner","type":"address","internalType":"address"}]},{"type":"error","name":"OwnableUnauthorizedAccount","inputs":[{"name":"account","type":"address","internalType":"address"}]},{"type":"error","name":"ThresholdNotMet","inputs":[]},{"type":"error","name":"ValidatorExists","inputs":[]},{"type":"error","name":"ValidatorNotFound","inputs":[]}],"bytecode":{"object":"0x60a060405234801561000f575f5ffd5b506040516147a73803806147a783398181016040528101906100319190610250565b335f73ffffffffffffffffffffffffffffffffffffffff168173ffffffffffffffffffffffffffffffffffffffff16036100a2575f6040517f1e4fbdf700000000000000000000000000000000000000000000000000000000815260040161009991906102cd565b60405180910390fd5b6100b18161011860201b60201c565b508167ffffffffffffffff1660808167ffffffffffffffff168152505080600160146101000a81548167ffffffffffffffff021916908367ffffffffffffffff160217905550600160075f6101000a81548160ff02191690831515021790555050506102e6565b60015f6101000a81549073ffffffffffffffffffffffffffffffffffffffff021916905561014b8161014e60201b60201c565b50565b5f5f5f9054906101000a900473ffffffffffffffffffffffffffffffffffffffff169050815f5f6101000a81548173ffffffffffffffffffffffffffffffffffffffff021916908373ffffffffffffffffffffffffffffffffffffffff1602179055508173ffffffffffffffffffffffffffffffffffffffff168173ffffffffffffffffffffffffffffffffffffffff167f8be0079c531659141344cd1fd0a4f28419497f9722a3daafe3b4186f6b6457e060405160405180910390a35050565b5f5ffd5b5f67ffffffffffffffff82169050919050565b61022f81610213565b8114610239575f5ffd5b50565b5f8151905061024a81610226565b92915050565b5f5f604083850312156102665761026561020f565b5b5f6102738582860161023c565b92505060206102848582860161023c565b9150509250929050565b5f73ffffffffffffffffffffffffffffffffffffffff82169050919050565b5f6102b78261028e565b9050919050565b6102c7816102ad565b82525050565b5f6020820190506102e05f8301846102be565b92915050565b60805161448d61031a5f395f81816107f401528181610eb30152818161121c0152818161164c0152611a07015261448d5ff3fe608060405234801561000f575f5ffd5b50600436106101e3575f3560e01c806379c4473a1161010d578063cc54ebf7116100a0578063e30c39781161006f578063e30c397814610545578063e539ed1714610563578063f2fde38b14610581578063facd743b1461059d576101e3565b8063cc54ebf7146104bd578063d0deef17146104ed578063d49efac01461050b578063e022676014610529576101e3565b8063a09d3879116100dc578063a09d38791461040f578063c06b35b01461042d578063c83eacc21461045d578063c9e73d4c1461048d576101e3565b806379c4473a14610399578063860af5e6146103b75780638da5cb5b146103d35780639e39bbfd146103f1576101e3565b8063472efe3811610185578063715018a611610154578063715018a614610349578063766718081461035357806379732fbc1461037157806379ba50971461038f576101e3565b8063472efe38146102d75780634d238c8e146102f3578063548bed751461030f5780636bbe869d1461032d576101e3565b806335aa2e44116101c157806335aa2e441461025157806340a141ff1461028157806342cde4e81461029d57806344954b4a146102bb576101e3565b80630c6038ed146101e75780630f43a6771461021757806322504a8514610235575b5f5ffd5b61020160048036038101906101fc9190612df0565b6105cd565b60405161020e9190612e33565b60405180910390f35b61021f6105fb565b60405161022c9190612e64565b60405180910390f35b61024f600480360381019061024a9190612f08565b610607565b005b61026b60048036038101906102669190612fdc565b610afd565b6040516102789190613046565b60405180910390f35b61029b60048036038101906102969190613089565b610b38565b005b6102a5610ddf565b6040516102b29190612e64565b60405180910390f35b6102d560048036038101906102d09190613109565b610de5565b005b6102f160048036038101906102ec91906131cf565b610fe9565b005b61030d60048036038101906103089190613089565b61108e565b005b61031761121a565b6040516103249190613209565b60405180910390f35b61034760048036038101906103429190613222565b61123e565b005b6103516112f4565b005b61035b611307565b6040516103689190613209565b60405180910390f35b610379611321565b6040516103869190612e33565b60405180910390f35b610397611345565b005b6103a16113d3565b6040516103ae91906132dd565b60405180910390f35b6103d160048036038101906103cc91906132fd565b61145f565b005b6103db611807565b6040516103e89190613046565b60405180910390f35b6103f961182e565b6040516104069190612e33565b60405180910390f35b610417611852565b6040516104249190613209565b60405180910390f35b61044760048036038101906104429190612df0565b61186b565b6040516104549190612e33565b60405180910390f35b61047760048036038101906104729190612df0565b611880565b60405161048491906133b6565b60405180910390f35b6104a760048036038101906104a29190612df0565b6118b3565b6040516104b49190612e64565b60405180910390f35b6104d760048036038101906104d29190612df0565b6118c8565b6040516104e49190612e33565b60405180910390f35b6104f56118dd565b60405161050291906132dd565b60405180910390f35b610513611969565b60405161052091906133b6565b60405180910390f35b610543600480360381019061053e91906133cf565b611977565b005b61054d611ccf565b60405161055a9190613046565b60405180910390f35b61056b611cf7565b60405161057891906133b6565b60405180910390f35b61059b60048036038101906105969190613089565b611d09565b005b6105b760048036038101906105b29190613089565b611db5565b6040516105c491906133b6565b60405180910390f35b5f60055f8367ffffffffffffffff1667ffffffffffffffff1681526020019081526020015f20549050919050565b5f600a80549050905090565b600160035f9054906101000a900467ffffffffffffffff16610629919061348d565b67ffffffffffffffff168767ffffffffffffffff16148061066857505f60035f9054906101000a900467ffffffffffffffff1667ffffffffffffffff16145b6106a7576040517f08c379a000000000000000000000000000000000000000000000000000000000815260040161069e90613522565b60405180910390fd5b60035f9054906101000a900467ffffffffffffffff1667ffffffffffffffff168767ffffffffffffffff16111580156106fe57505f60035f9054906101000a900467ffffffffffffffff1667ffffffffffffffff16115b15610735576040517fae0c382600000000000000000000000000000000000000000000000000000000815260040160405180910390fd5b5f60035f9054906101000a900467ffffffffffffffff1667ffffffffffffffff1611156107d05760045f60035f9054906101000a900467ffffffffffffffff1667ffffffffffffffff1667ffffffffffffffff1681526020019081526020015f205486146107cf576040517f591c836700000000000000000000000000000000000000000000000000000000815260040160405180910390fd5b5b5f7fb7e5c549800b144fb8b534568f698ddeb69e84956c61706fee8fefdb813d3a8a7f0000000000000000000000000000000000000000000000000000000000000000898989898960405160200161082e9796959493929190613594565b60405160208183030381529060405280519060200120905060075f9054906101000a900460ff1615610961575f8383905067ffffffffffffffff81111561087857610877613614565b5b6040519080825280602002602001820160405280156108ab57816020015b60608152602001906001900390816108965790505b5090505f5f90505b84849050811015610950578484828181106108d1576108d0613641565b5b90506020028101906108e3919061367a565b8080601f0160208091040260200160405190810160405280939291908181526020018383808284375f81840152601f19601f8201169050808301925050505050505082828151811061093857610937613641565b5b602002602001018190525080806001019150506108b3565b5061095b8282611dd2565b506109d6565b600183839050146109a7576040517f08c379a000000000000000000000000000000000000000000000000000000000815260040161099e9061374c565b60405180910390fd5b6109d58184845f8181106109be576109bd613641565b5b90506020028101906109d0919061367a565b611f6c565b5b5f88888888886040516020016109f095949392919061376a565b6040516020818303038152906040528051906020012090508060045f8b67ffffffffffffffff1667ffffffffffffffff1681526020019081526020015f20819055508560055f8b67ffffffffffffffff1667ffffffffffffffff1681526020019081526020015f20819055504260065f8b67ffffffffffffffff1667ffffffffffffffff1681526020019081526020015f20819055508860035f6101000a81548167ffffffffffffffff021916908367ffffffffffffffff1602179055508867ffffffffffffffff167f2993dbc1bc5a75fad02580d988d66672fb97594b89f81503088f9e1f66e21c048288604051610aea9291906137c8565b60405180910390a2505050505050505050565b600a8181548110610b0c575f80fd5b905f5260205f20015f915054906101000a900473ffffffffffffffffffffffffffffffffffffffff1681565b610b40612108565b60095f8273ffffffffffffffffffffffffffffffffffffffff1673ffffffffffffffffffffffffffffffffffffffff1681526020019081526020015f205f9054906101000a900460ff16610bc0576040517f580e542f00000000000000000000000000000000000000000000000000000000815260040160405180910390fd5b5f60095f8373ffffffffffffffffffffffffffffffffffffffff1673ffffffffffffffffffffffffffffffffffffffff1681526020019081526020015f205f6101000a81548160ff0219169083151502179055505f5f90505b600a80549050811015610d90578173ffffffffffffffffffffffffffffffffffffffff16600a8281548110610c5157610c50613641565b5b905f5260205f20015f9054906101000a900473ffffffffffffffffffffffffffffffffffffffff1673ffffffffffffffffffffffffffffffffffffffff1603610d8357600a6001600a80549050610ca891906137ef565b81548110610cb957610cb8613641565b5b905f5260205f20015f9054906101000a900473ffffffffffffffffffffffffffffffffffffffff16600a8281548110610cf557610cf4613641565b5b905f5260205f20015f6101000a81548173ffffffffffffffffffffffffffffffffffffffff021916908373ffffffffffffffffffffffffffffffffffffffff160217905550600a805480610d4c57610d4b613822565b5b600190038181905f5260205f20015f6101000a81549073ffffffffffffffffffffffffffffffffffffffff02191690559055610d90565b8080600101915050610c19565b50610d9961218f565b8073ffffffffffffffffffffffffffffffffffffffff167fe1434e25d6611e0db941968fdc97811c982ac1602e951637d206f5fdda9dd8f160405160405180910390a250565b60085481565b600160149054906101000a900467ffffffffffffffff1667ffffffffffffffff168567ffffffffffffffff1611610e51576040517f08c379a0000000000000000000000000000000000000000000000000000000008152600401610e4890613899565b60405180910390fd5b6101008484905014610e8f576040517f7b7d6d1700000000000000000000000000000000000000000000000000000000815260040160405180910390fd5b5f7fe5af582cf3f77d10e5e9ea85538be744d6b61da44268eb68b35faaf4639edb647f0000000000000000000000000000000000000000000000000000000000000000878787604051602001610ee99594939291906138f3565b604051602081830303815290604052805190602001209050610f0c818484611f6c565b85600160146101000a81548167ffffffffffffffff021916908367ffffffffffffffff160217905550848460029182610f46929190613b45565b508484600b9182610f58929190613b45565b508567ffffffffffffffff167f48b3aa711887c5c9a4bc0f4bbf4b7dfe91a9d6528b3dfc328a21ed26fc335fa58686604051610f95929190613c3e565b60405180910390a28567ffffffffffffffff167f372ab7c5944f1577c45b82904b419a4cd3bd305b60b2d062228a90aa641a5bd38686604051610fd9929190613c3e565b60405180910390a2505050505050565b610ff1612108565b8015801561100457506110026121da565b155b1561103b576040517fd5313b2b00000000000000000000000000000000000000000000000000000000815260040160405180910390fd5b8060075f6101000a81548160ff0219169083151502179055507fb1ad7aeba0be5ac6144392b92e31727e4f376c05eac1d9d6c8183be2fa70dff78160405161108391906133b6565b60405180910390a150565b611096612108565b60095f8273ffffffffffffffffffffffffffffffffffffffff1673ffffffffffffffffffffffffffffffffffffffff1681526020019081526020015f205f9054906101000a900460ff1615611117576040517f7e9b8fa600000000000000000000000000000000000000000000000000000000815260040160405180910390fd5b600160095f8373ffffffffffffffffffffffffffffffffffffffff1673ffffffffffffffffffffffffffffffffffffffff1681526020019081526020015f205f6101000a81548160ff021916908315150217905550600a81908060018154018082558091505060019003905f5260205f20015f9091909190916101000a81548173ffffffffffffffffffffffffffffffffffffffff021916908373ffffffffffffffffffffffffffffffffffffffff1602179055506111d461218f565b8073ffffffffffffffffffffffffffffffffffffffff167fe366c1c0452ed8eec96861e9e54141ebff23c9ec89fe27b996b45f5ec388498760405160405180910390a250565b7f000000000000000000000000000000000000000000000000000000000000000081565b611246612108565b6101008282905014611284576040517f7b7d6d1700000000000000000000000000000000000000000000000000000000815260040160405180910390fd5b818160029182611295929190613b45565b50600160149054906101000a900467ffffffffffffffff1667ffffffffffffffff167f48b3aa711887c5c9a4bc0f4bbf4b7dfe91a9d6528b3dfc328a21ed26fc335fa583836040516112e8929190613c3e565b60405180910390a25050565b6112fc612108565b6113055f6122c2565b565b600160149054906101000a900467ffffffffffffffff1681565b7fb7e5c549800b144fb8b534568f698ddeb69e84956c61706fee8fefdb813d3a8a81565b5f61134e6122f2565b90508073ffffffffffffffffffffffffffffffffffffffff1661136f611ccf565b73ffffffffffffffffffffffffffffffffffffffff16146113c757806040517f118cdaa70000000000000000000000000000000000000000000000000000000081526004016113be9190613046565b60405180910390fd5b6113d0816122c2565b50565b600280546113e090613975565b80601f016020809104026020016040519081016040528092919081815260200182805461140c90613975565b80156114575780601f1061142e57610100808354040283529160200191611457565b820191905f5260205f20905b81548152906001019060200180831161143a57829003601f168201915b505050505081565b600160035f9054906101000a900467ffffffffffffffff16611481919061348d565b67ffffffffffffffff168767ffffffffffffffff1614806114c057505f60035f9054906101000a900467ffffffffffffffff1667ffffffffffffffff16145b6114ff576040517f08c379a00000000000000000000000000000000000000000000000000000000081526004016114f690613522565b60405180910390fd5b60035f9054906101000a900467ffffffffffffffff1667ffffffffffffffff168767ffffffffffffffff161115801561155657505f60035f9054906101000a900467ffffffffffffffff1667ffffffffffffffff16115b1561158d576040517fae0c382600000000000000000000000000000000000000000000000000000000815260040160405180910390fd5b5f60035f9054906101000a900467ffffffffffffffff1667ffffffffffffffff1611156116285760045f60035f9054906101000a900467ffffffffffffffff1667ffffffffffffffff1667ffffffffffffffff1681526020019081526020015f20548614611627576040517f591c836700000000000000000000000000000000000000000000000000000000815260040160405180910390fd5b5b5f7fb7e5c549800b144fb8b534568f698ddeb69e84956c61706fee8fefdb813d3a8a7f000000000000000000000000000000000000000000000000000000000000000089898989896040516020016116869796959493929190613594565b60405160208183030381529060405280519060200120905060075f9054906101000a900460ff16156116d4575f83838101906116c29190613e2b565b90506116ce8282611dd2565b506116e0565b6116df818484611f6c565b5b5f88888888886040516020016116fa95949392919061376a565b6040516020818303038152906040528051906020012090508060045f8b67ffffffffffffffff1667ffffffffffffffff1681526020019081526020015f20819055508560055f8b67ffffffffffffffff1667ffffffffffffffff1681526020019081526020015f20819055504260065f8b67ffffffffffffffff1667ffffffffffffffff1681526020019081526020015f20819055508860035f6101000a81548167ffffffffffffffff021916908367ffffffffffffffff1602179055508867ffffffffffffffff167f2993dbc1bc5a75fad02580d988d66672fb97594b89f81503088f9e1f66e21c0482886040516117f49291906137c8565b60405180910390a2505050505050505050565b5f5f5f9054906101000a900473ffffffffffffffffffffffffffffffffffffffff16905090565b7fe5af582cf3f77d10e5e9ea85538be744d6b61da44268eb68b35faaf4639edb6481565b60035f9054906101000a900467ffffffffffffffff1681565b6005602052805f5260405f205f915090505481565b5f5f5f1b60045f8467ffffffffffffffff1667ffffffffffffffff1681526020019081526020015f205414159050919050565b6006602052805f5260405f205f915090505481565b6004602052805f5260405f205f915090505481565b600b80546118ea90613975565b80601f016020809104026020016040519081016040528092919081815260200182805461191690613975565b80156119615780601f1061193857610100808354040283529160200191611961565b820191905f5260205f20905b81548152906001019060200180831161194457829003601f168201915b505050505081565b5f6119726121da565b905090565b600160149054906101000a900467ffffffffffffffff1667ffffffffffffffff168567ffffffffffffffff16116119e3576040517f08c379a00000000000000000000000000000000000000000000000000000000081526004016119da90613899565b60405180910390fd5b5f7fe5af582cf3f77d10e5e9ea85538be744d6b61da44268eb68b35faaf4639edb647f0000000000000000000000000000000000000000000000000000000000000000878787604051602001611a3d9594939291906138f3565b60405160208183030381529060405280519060200120905060075f9054906101000a900460ff1615611b70575f8383905067ffffffffffffffff811115611a8757611a86613614565b5b604051908082528060200260200182016040528015611aba57816020015b6060815260200190600190039081611aa55790505b5090505f5f90505b84849050811015611b5f57848482818110611ae057611adf613641565b5b9050602002810190611af2919061367a565b8080601f0160208091040260200160405190810160405280939291908181526020018383808284375f81840152601f19601f82011690508083019250505050505050828281518110611b4757611b46613641565b5b60200260200101819052508080600101915050611ac2565b50611b6a8282611dd2565b50611be5565b60018383905014611bb6576040517f08c379a0000000000000000000000000000000000000000000000000000000008152600401611bad9061374c565b60405180910390fd5b611be48184845f818110611bcd57611bcc613641565b5b9050602002810190611bdf919061367a565b611f6c565b5b85600160146101000a81548167ffffffffffffffff021916908367ffffffffffffffff1602179055508484600b9182611c1f929190613b45565b506101008585905003611c8357848460029182611c3d929190613b45565b508567ffffffffffffffff167f48b3aa711887c5c9a4bc0f4bbf4b7dfe91a9d6528b3dfc328a21ed26fc335fa58686604051611c7a929190613c3e565b60405180910390a25b8567ffffffffffffffff167f372ab7c5944f1577c45b82904b419a4cd3bd305b60b2d062228a90aa641a5bd38686604051611cbf929190613c3e565b60405180910390a2505050505050565b5f60015f9054906101000a900473ffffffffffffffffffffffffffffffffffffffff16905090565b60075f9054906101000a900460ff1681565b611d11612108565b8060015f6101000a81548173ffffffffffffffffffffffffffffffffffffffff021916908373ffffffffffffffffffffffffffffffffffffffff1602179055508073ffffffffffffffffffffffffffffffffffffffff16611d70611807565b73ffffffffffffffffffffffffffffffffffffffff167f38d16b8cac22d99fc7c124b9cd0de2d3fa1faef420bfe791d8c362d765e2270060405160405180910390a350565b6009602052805f5260405f205f915054906101000a900460ff1681565b60085481511015611e0f576040517f59fa4a9300000000000000000000000000000000000000000000000000000000815260040160405180910390fd5b5f5f90505f5f90505f5f90505b8351811015611f29575f611e4a86868481518110611e3d57611e3c613641565b5b60200260200101516122f9565b90508273ffffffffffffffffffffffffffffffffffffffff168173ffffffffffffffffffffffffffffffffffffffff1611611eba576040517f08c379a0000000000000000000000000000000000000000000000000000000008152600401611eb190613ebc565b60405180910390fd5b80925060095f8273ffffffffffffffffffffffffffffffffffffffff1673ffffffffffffffffffffffffffffffffffffffff1681526020019081526020015f205f9054906101000a900460ff1615611f1b578380611f1790613eda565b9450505b508080600101915050611e1c565b50600854821015611f66576040517f59fa4a9300000000000000000000000000000000000000000000000000000000815260040160405180910390fd5b50505050565b60808282905014611fa9576040517fffa68d7c00000000000000000000000000000000000000000000000000000000815260040160405180910390fd5b61010060028054611fb990613975565b905014611ff2576040517f7b7d6d1700000000000000000000000000000000000000000000000000000000815260040160405180910390fd5b5f6120c983838080601f0160208091040260200160405190810160405280939291908181526020018383808284375f81840152601f19601f820116905080830192505050505050506002805461204790613975565b80601f016020809104026020016040519081016040528092919081815260200182805461207390613975565b80156120be5780601f10612095576101008083540402835291602001916120be565b820191905f5260205f20905b8154815290600101906020018083116120a157829003601f168201915b505050505086612323565b905080612102576040517fd495b61600000000000000000000000000000000000000000000000000000000815260040160405180910390fd5b50505050565b6121106122f2565b73ffffffffffffffffffffffffffffffffffffffff1661212e611807565b73ffffffffffffffffffffffffffffffffffffffff161461218d576121516122f2565b6040517f118cdaa70000000000000000000000000000000000000000000000000000000081526004016121849190613046565b60405180910390fd5b565b5f600a80549050036121a85760016008819055506121d8565b6003600280600a805490506121bd9190613f21565b6121c79190613f62565b6121d19190613fc2565b6008819055505b565b5f5f608067ffffffffffffffff8111156121f7576121f6613614565b5b6040519080825280601f01601f1916602001820160405280156122295781602001600182028036833780820191505090505b5090505f8182604051602001612240929190614022565b60405160208183030381529060405290505f600b73ffffffffffffffffffffffffffffffffffffffff16826040516122789190614045565b5f60405180830381855afa9150503d805f81146122b0576040519150601f19603f3d011682016040523d82523d5f602084013e6122b5565b606091505b5050905080935050505090565b60015f6101000a81549073ffffffffffffffffffffffffffffffffffffffff02191690556122ef816124cc565b50565b5f33905090565b5f5f5f5f612307868661258d565b92509250925061231782826125e2565b82935050505092915050565b5f608084511461235f576040517fec19c2c100000000000000000000000000000000000000000000000000000000815260040160405180910390fd5b61010083511461239b576040517f6211cf4500000000000000000000000000000000000000000000000000000000815260040160405180910390fd5b5f6123a583612744565b90505f6123b182612858565b90505f866040518061012001604052806101008152602001614318610100913983886040516020016123e6949392919061405b565b60405160208183030381529060405290505f5f601173ffffffffffffffffffffffffffffffffffffffff168360405161241f9190614045565b5f60405180830381855afa9150503d805f8114612457576040519150601f19603f3d011682016040523d82523d5f602084013e61245c565b606091505b509150915081158061247057506020815114155b156124a7576040517f6df788d200000000000000000000000000000000000000000000000000000000815260040160405180910390fd5b6001818060200190518101906124bd91906140ac565b14955050505050509392505050565b5f5f5f9054906101000a900473ffffffffffffffffffffffffffffffffffffffff169050815f5f6101000a81548173ffffffffffffffffffffffffffffffffffffffff021916908373ffffffffffffffffffffffffffffffffffffffff1602179055508173ffffffffffffffffffffffffffffffffffffffff168173ffffffffffffffffffffffffffffffffffffffff167f8be0079c531659141344cd1fd0a4f28419497f9722a3daafe3b4186f6b6457e060405160405180910390a35050565b5f5f5f60418451036125cd575f5f5f602087015192506040870151915060608701515f1a90506125bf88828585612af9565b9550955095505050506125db565b5f600285515f1b9250925092505b9250925092565b5f60038111156125f5576125f46140d7565b5b826003811115612608576126076140d7565b5b03156127405760016003811115612622576126216140d7565b5b826003811115612635576126346140d7565b5b0361266c576040517ff645eedf00000000000000000000000000000000000000000000000000000000815260040160405180910390fd5b600260038111156126805761267f6140d7565b5b826003811115612693576126926140d7565b5b036126d757805f1c6040517ffce698f70000000000000000000000000000000000000000000000000000000081526004016126ce9190612e64565b60405180910390fd5b6003808111156126ea576126e96140d7565b5b8260038111156126fd576126fc6140d7565b5b0361273f57806040517fd78bce0c0000000000000000000000000000000000000000000000000000000081526004016127369190612e33565b60405180910390fd5b5b5050565b60605f604067ffffffffffffffff81111561276257612761613614565b5b6040519080825280601f01601f1916602001820160405280156127945781602001600182028036833780820191505090505b5090508260408201525f5f601273ffffffffffffffffffffffffffffffffffffffff16836040516127c59190614045565b5f60405180830381855afa9150503d805f81146127fd576040519150601f19603f3d011682016040523d82523d5f602084013e612802565b606091505b509150915081158061281657506080815114155b1561284d576040517f4ed07c3f00000000000000000000000000000000000000000000000000000000815260040160405180910390fd5b809350505050919050565b6060608082511461289e576040517f08c379a00000000000000000000000000000000000000000000000000000000081526004016128959061414e565b60405180910390fd5b5f604051806060016040528060408152602001614418604091399050608067ffffffffffffffff8111156128d5576128d4613614565b5b6040519080825280601f01601f1916602001820160405280156129075781602001600182028036833780820191505090505b5091505f5f90505b60408110156129845783818151811061292b5761292a613641565b5b602001015160f81c60f81b83828151811061294957612948613641565b5b60200101907effffffffffffffffffffffffffffffffffffffffffffffffffffffffffffff191690815f1a905350808060010191505061290f565b505f604067ffffffffffffffff8111156129a1576129a0613614565b5b6040519080825280601f01601f1916602001820160405280156129d35781602001600182028036833780820191505090505b5090505f5f90505b6040811015612a5c57848160406129f29190613f62565b81518110612a0357612a02613641565b5b602001015160f81c60f81b828281518110612a2157612a20613641565b5b60200101907effffffffffffffffffffffffffffffffffffffffffffffffffffffffffffff191690815f1a90535080806001019150506129db565b505f612a688383612be0565b90505f5f90505b6040811015612af057818181518110612a8b57612a8a613641565b5b602001015160f81c60f81b85826040612aa49190613f62565b81518110612ab557612ab4613641565b5b60200101907effffffffffffffffffffffffffffffffffffffffffffffffffffffffffffff191690815f1a9053508080600101915050612a6f565b50505050919050565b5f5f5f7f7fffffffffffffffffffffffffffffff5d576e7357a4501ddfe92f46681b20a0845f1c1115612b35575f600385925092509250612bd6565b5f6001888888886040515f8152602001604052604051612b589493929190614187565b6020604051602081039080840390855afa158015612b78573d5f5f3e3d5ffd5b5050506020604051035190505f73ffffffffffffffffffffffffffffffffffffffff168173ffffffffffffffffffffffffffffffffffffffff1603612bc9575f60015f5f1b93509350935050612bd6565b805f5f5f1b935093509350505b9450945094915050565b606060408351148015612bf4575060408251145b612c33576040517f08c379a0000000000000000000000000000000000000000000000000000000008152600401612c2a90614214565b60405180910390fd5b604067ffffffffffffffff811115612c4e57612c4d613614565b5b6040519080825280601f01601f191660200182016040528015612c805781602001600182028036833780820191505090505b5090505f5f90505f604090505b5f811115612d9a575f8285600184612ca591906137ef565b81518110612cb657612cb5613641565b5b602001015160f81c60f81b60f81c60ff1687600185612cd591906137ef565b81518110612ce657612ce5613641565b5b602001015160f81c60f81b60f81c60ff16612d01919061423e565b612d0b919061423e565b90505f8160010b1215612d315761010081612d269190614297565b905060019250612d35565b5f92505b8060f81b84600184612d4791906137ef565b81518110612d5857612d57613641565b5b60200101907effffffffffffffffffffffffffffffffffffffffffffffffffffffffffffff191690815f1a905350508080612d92906142f0565b915050612c8d565b505092915050565b5f604051905090565b5f5ffd5b5f5ffd5b5f67ffffffffffffffff82169050919050565b612dcf81612db3565b8114612dd9575f5ffd5b50565b5f81359050612dea81612dc6565b92915050565b5f60208284031215612e0557612e04612dab565b5b5f612e1284828501612ddc565b91505092915050565b5f819050919050565b612e2d81612e1b565b82525050565b5f602082019050612e465f830184612e24565b92915050565b5f819050919050565b612e5e81612e4c565b82525050565b5f602082019050612e775f830184612e55565b92915050565b612e8681612e1b565b8114612e90575f5ffd5b50565b5f81359050612ea181612e7d565b92915050565b5f5ffd5b5f5ffd5b5f5ffd5b5f5f83601f840112612ec857612ec7612ea7565b5b8235905067ffffffffffffffff811115612ee557612ee4612eab565b5b602083019150836020820283011115612f0157612f00612eaf565b5b9250929050565b5f5f5f5f5f5f5f60c0888a031215612f2357612f22612dab565b5b5f612f308a828b01612ddc565b9750506020612f418a828b01612e93565b9650506040612f528a828b01612e93565b9550506060612f638a828b01612e93565b9450506080612f748a828b01612ddc565b93505060a088013567ffffffffffffffff811115612f9557612f94612daf565b5b612fa18a828b01612eb3565b925092505092959891949750929550565b612fbb81612e4c565b8114612fc5575f5ffd5b50565b5f81359050612fd681612fb2565b92915050565b5f60208284031215612ff157612ff0612dab565b5b5f612ffe84828501612fc8565b91505092915050565b5f73ffffffffffffffffffffffffffffffffffffffff82169050919050565b5f61303082613007565b9050919050565b61304081613026565b82525050565b5f6020820190506130595f830184613037565b92915050565b61306881613026565b8114613072575f5ffd5b50565b5f813590506130838161305f565b92915050565b5f6020828403121561309e5761309d612dab565b5b5f6130ab84828501613075565b91505092915050565b5f5f83601f8401126130c9576130c8612ea7565b5b8235905067ffffffffffffffff8111156130e6576130e5612eab565b5b60208301915083600182028301111561310257613101612eaf565b5b9250929050565b5f5f5f5f5f6060868803121561312257613121612dab565b5b5f61312f88828901612ddc565b955050602086013567ffffffffffffffff8111156131505761314f612daf565b5b61315c888289016130b4565b9450945050604086013567ffffffffffffffff81111561317f5761317e612daf565b5b61318b888289016130b4565b92509250509295509295909350565b5f8115159050919050565b6131ae8161319a565b81146131b8575f5ffd5b50565b5f813590506131c9816131a5565b92915050565b5f602082840312156131e4576131e3612dab565b5b5f6131f1848285016131bb565b91505092915050565b61320381612db3565b82525050565b5f60208201905061321c5f8301846131fa565b92915050565b5f5f6020838503121561323857613237612dab565b5b5f83013567ffffffffffffffff81111561325557613254612daf565b5b613261858286016130b4565b92509250509250929050565b5f81519050919050565b5f82825260208201905092915050565b8281835e5f83830152505050565b5f601f19601f8301169050919050565b5f6132af8261326d565b6132b98185613277565b93506132c9818560208601613287565b6132d281613295565b840191505092915050565b5f6020820190508181035f8301526132f581846132a5565b905092915050565b5f5f5f5f5f5f5f60c0888a03121561331857613317612dab565b5b5f6133258a828b01612ddc565b97505060206133368a828b01612e93565b96505060406133478a828b01612e93565b95505060606133588a828b01612e93565b94505060806133698a828b01612ddc565b93505060a088013567ffffffffffffffff81111561338a57613389612daf565b5b6133968a828b016130b4565b925092505092959891949750929550565b6133b08161319a565b82525050565b5f6020820190506133c95f8301846133a7565b92915050565b5f5f5f5f5f606086880312156133e8576133e7612dab565b5b5f6133f588828901612ddc565b955050602086013567ffffffffffffffff81111561341657613415612daf565b5b613422888289016130b4565b9450945050604086013567ffffffffffffffff81111561344557613444612daf565b5b61345188828901612eb3565b92509250509295509295909350565b7f4e487b71000000000000000000000000000000000000000000000000000000005f52601160045260245ffd5b5f61349782612db3565b91506134a283612db3565b9250828201905067ffffffffffffffff8111156134c2576134c1613460565b5b92915050565b5f82825260208201905092915050565b7f6e6f6e2d636f6e746967756f75730000000000000000000000000000000000005f82015250565b5f61350c600e836134c8565b9150613517826134d8565b602082019050919050565b5f6020820190508181035f83015261353981613500565b9050919050565b5f819050919050565b61355a61355582612e1b565b613540565b82525050565b5f8160c01b9050919050565b5f61357682613560565b9050919050565b61358e61358982612db3565b61356c565b82525050565b5f61359f828a613549565b6020820191506135af828961357d565b6008820191506135bf828861357d565b6008820191506135cf8287613549565b6020820191506135df8286613549565b6020820191506135ef8285613549565b6020820191506135ff828461357d565b60088201915081905098975050505050505050565b7f4e487b71000000000000000000000000000000000000000000000000000000005f52604160045260245ffd5b7f4e487b71000000000000000000000000000000000000000000000000000000005f52603260045260245ffd5b5f5ffd5b5f5ffd5b5f5ffd5b5f5f833560016020038436030381126136965761369561366e565b5b80840192508235915067ffffffffffffffff8211156136b8576136b7613672565b5b6020830192506001820236038313156136d4576136d3613676565b5b509250929050565b7f424c53206d6f646520657870656374732073696e676c652061676772656761745f8201527f6564207369676e61747572650000000000000000000000000000000000000000602082015250565b5f613736602c836134c8565b9150613741826136dc565b604082019050919050565b5f6020820190508181035f8301526137638161372a565b9050919050565b5f613775828861357d565b6008820191506137858287613549565b6020820191506137958286613549565b6020820191506137a58285613549565b6020820191506137b5828461357d565b6008820191508190509695505050505050565b5f6040820190506137db5f830185612e24565b6137e86020830184612e24565b9392505050565b5f6137f982612e4c565b915061380483612e4c565b925082820390508181111561381c5761381b613460565b5b92915050565b7f4e487b71000000000000000000000000000000000000000000000000000000005f52603160045260245ffd5b7f45706f6368206d75737420696e637265617365000000000000000000000000005f82015250565b5f6138836013836134c8565b915061388e8261384f565b602082019050919050565b5f6020820190508181035f8301526138b081613877565b9050919050565b5f81905092915050565b828183375f83830152505050565b5f6138da83856138b7565b93506138e78385846138c1565b82840190509392505050565b5f6138fe8288613549565b60208201915061390e828761357d565b60088201915061391e828661357d565b60088201915061392f8284866138cf565b91508190509695505050505050565b5f82905092915050565b7f4e487b71000000000000000000000000000000000000000000000000000000005f52602260045260245ffd5b5f600282049050600182168061398c57607f821691505b60208210810361399f5761399e613948565b5b50919050565b5f819050815f5260205f209050919050565b5f6020601f8301049050919050565b5f82821b905092915050565b5f60088302613a017fffffffffffffffffffffffffffffffffffffffffffffffffffffffffffffffff826139c6565b613a0b86836139c6565b95508019841693508086168417925050509392505050565b5f819050919050565b5f613a46613a41613a3c84612e4c565b613a23565b612e4c565b9050919050565b5f819050919050565b613a5f83613a2c565b613a73613a6b82613a4d565b8484546139d2565b825550505050565b5f5f905090565b613a8a613a7b565b613a95818484613a56565b505050565b5b81811015613ab857613aad5f82613a82565b600181019050613a9b565b5050565b601f821115613afd57613ace816139a5565b613ad7846139b7565b81016020851015613ae6578190505b613afa613af2856139b7565b830182613a9a565b50505b505050565b5f82821c905092915050565b5f613b1d5f1984600802613b02565b1980831691505092915050565b5f613b358383613b0e565b9150826002028217905092915050565b613b4f838361393e565b67ffffffffffffffff811115613b6857613b67613614565b5b613b728254613975565b613b7d828285613abc565b5f601f831160018114613baa575f8415613b98578287013590505b613ba28582613b2a565b865550613c09565b601f198416613bb8866139a5565b5f5b82811015613bdf57848901358255600182019150602085019450602081019050613bba565b86831015613bfc5784890135613bf8601f891682613b0e565b8355505b6001600288020188555050505b50505050505050565b5f613c1d8385613277565b9350613c2a8385846138c1565b613c3383613295565b840190509392505050565b5f6020820190508181035f830152613c57818486613c12565b90509392505050565b613c6982613295565b810181811067ffffffffffffffff82111715613c8857613c87613614565b5b80604052505050565b5f613c9a612da2565b9050613ca68282613c60565b919050565b5f67ffffffffffffffff821115613cc557613cc4613614565b5b602082029050602081019050919050565b5f5ffd5b5f67ffffffffffffffff821115613cf457613cf3613614565b5b613cfd82613295565b9050602081019050919050565b5f613d1c613d1784613cda565b613c91565b905082815260208101848484011115613d3857613d37613cd6565b5b613d438482856138c1565b509392505050565b5f82601f830112613d5f57613d5e612ea7565b5b8135613d6f848260208601613d0a565b91505092915050565b5f613d8a613d8584613cab565b613c91565b90508083825260208201905060208402830185811115613dad57613dac612eaf565b5b835b81811015613df457803567ffffffffffffffff811115613dd257613dd1612ea7565b5b808601613ddf8982613d4b565b85526020850194505050602081019050613daf565b5050509392505050565b5f82601f830112613e1257613e11612ea7565b5b8135613e22848260208601613d78565b91505092915050565b5f60208284031215613e4057613e3f612dab565b5b5f82013567ffffffffffffffff811115613e5d57613e5c612daf565b5b613e6984828501613dfe565b91505092915050565b7f5369676e617475726573206e6f7420736f7274656400000000000000000000005f82015250565b5f613ea66015836134c8565b9150613eb182613e72565b602082019050919050565b5f6020820190508181035f830152613ed381613e9a565b9050919050565b5f613ee482612e4c565b91507fffffffffffffffffffffffffffffffffffffffffffffffffffffffffffffffff8203613f1657613f15613460565b5b600182019050919050565b5f613f2b82612e4c565b9150613f3683612e4c565b9250828202613f4481612e4c565b91508282048414831517613f5b57613f5a613460565b5b5092915050565b5f613f6c82612e4c565b9150613f7783612e4c565b9250828201905080821115613f8f57613f8e613460565b5b92915050565b7f4e487b71000000000000000000000000000000000000000000000000000000005f52601260045260245ffd5b5f613fcc82612e4c565b9150613fd783612e4c565b925082613fe757613fe6613f95565b5b828204905092915050565b5f613ffc8261326d565b61400681856138b7565b9350614016818560208601613287565b80840191505092915050565b5f61402d8285613ff2565b91506140398284613ff2565b91508190509392505050565b5f6140508284613ff2565b915081905092915050565b5f6140668287613ff2565b91506140728286613ff2565b915061407e8285613ff2565b915061408a8284613ff2565b915081905095945050505050565b5f815190506140a681612fb2565b92915050565b5f602082840312156140c1576140c0612dab565b5b5f6140ce84828501614098565b91505092915050565b7f4e487b71000000000000000000000000000000000000000000000000000000005f52602160045260245ffd5b7f496e76616c696420473120706f696e74206c656e6774680000000000000000005f82015250565b5f6141386017836134c8565b915061414382614104565b602082019050919050565b5f6020820190508181035f8301526141658161412c565b9050919050565b5f60ff82169050919050565b6141818161416c565b82525050565b5f60808201905061419a5f830187612e24565b6141a76020830186614178565b6141b46040830185612e24565b6141c16060830184612e24565b95945050505050565b7f496e76616c6964206f706572616e64206c656e677468000000000000000000005f82015250565b5f6141fe6016836134c8565b9150614209826141ca565b602082019050919050565b5f6020820190508181035f83015261422b816141f2565b9050919050565b5f8160010b9050919050565b5f61424882614232565b915061425383614232565b92508282039050617fff81137fffffffffffffffffffffffffffffffffffffffffffffffffffffffffffff80008212171561429157614290613460565b5b92915050565b5f6142a182614232565b91506142ac83614232565b925082820190507fffffffffffffffffffffffffffffffffffffffffffffffffffffffffffff80008112617fff821317156142ea576142e9613460565b5b92915050565b5f6142fa82612e4c565b91505f820361430c5761430b613460565b5b60018203905091905056fe00000000000000000000000000000000024aa2b2f08f0a91260805272dc51051c6e47ad4fa403b02b4510b647ae3d1770bac0326a805bbefd48056c8c121bdb80000000000000000000000000000000013e02b6052719f607dacd3a088274f65596bd0d09920b61ab5da61bbdc7f5049334cf11213945d57e5ac7d055d042b7e00000000000000000000000000000000ce5d527727d6e118cc9cdc6da2e351aadfd9baa8cbdd3a76d429a695160d12c923ac9cc3baca289e193548608b828010000000000000000000000000000000000606c4a02ea734cc32acd2b02bc28b99cb3e287e85a763af267492ab572e99ab3f370d275cec1da1aaa9075ff05f79be000000000000000000000000000000001a0111ea397fe69a4b1ba7b6434bacd764774b84f38512bf6730d2a0f6b0f6241eabfffeb153ffffb9feffffffffaaaba26469706673582212208de9234d63b34f8ba9b0e5905112e52e4551e6c03704102d07d4c9d793a5370964736f6c634300081c0033","linkReferences":{}},"methodIdentifiers":{"HEADER_DOMAIN()":"79732fbc","ROTATION_DOMAIN()":"9e39bbfd","acceptOwnership()":"79ba5097","addValidator(address)":"4d238c8e","blsPublicKey()":"79c4473a","currentEpoch()":"76671808","currentPublicKey()":"d0deef17","finalizedAt(uint64)":"c9e73d4c","getReceiptsRoot(uint64)":"0c6038ed","headerHashes(uint64)":"cc54ebf7","isBLSAvailable()":"d49efac0","isHeaderFinalized(uint64)":"c83eacc2","isValidator(address)":"facd743b","latestFinalizedHeight()":"a09d3879","owner()":"8da5cb5b","pendingOwner()":"e30c3978","receiptsRoots(uint64)":"c06b35b0","removeValidator(address)":"40a141ff","renounceOwnership()":"715018a6","setBLSPublicKey(bytes)":"6bbe869d","setSignatureMode(bool)":"472efe38","submitBLSKeyRotation(uint64,bytes,bytes)":"44954b4a","submitHeader(uint64,bytes32,bytes32,bytes32,uint64,bytes)":"860af5e6","submitHeader(uint64,bytes32,bytes32,bytes32,uint64,bytes[])":"22504a85","submitKeyRotation(uint64,bytes,bytes[])":"e0226760","tempoChainId()":"548bed75","threshold()":"42cde4e8","transferOwnership(address)":"f2fde38b","useEcdsaMode()":"e539ed17","validatorCount()":"0f43a677","validators(uint256)":"35aa2e44"},"id":35}