{"abi":[{"type":"constructor","inputs":[{"name":"_tempoChainId","type":"uint64","internalType":"uint64"},{"name":"_initialEpoch","type":"uint64","internalType":"uint64"}],"stateMutability":"nonpayable"},{"type":"function","name":"HEADER_DOMAIN","inputs":[],"outputs":[{"name":"","type":"bytes32","internalType":"bytes32"}],"stateMutability":"view"},{"type":"function","name":"ROTATION_DOMAIN","inputs":[],"outputs":[{"name":"","type":"bytes32","internalType":"bytes32"}],"stateMutability":"view"},{"type":"function","name":"acceptOwnership","inputs":[],"outputs":[],"stateMutability":"nonpayable"},{"type":"function","name":"addValidator","inputs":[{"name":"validator","type":"address","internalType":"address"}],"outputs":[],"stateMutability":"nonpayable"},{"type":"function","name":"blsPublicKey","inputs":[],"outputs":[{"name":"","type":"bytes","internalType":"bytes"}],"stateMutability":"view"},{"type":"function","name":"currentEpoch","inputs":[],"outputs":[{"name":"","type":"uint64","internalType":"uint64"}],"stateMutability":"view"},{"type":"function","name":"currentPublicKey","inputs":[],"outputs":[{"name":"","type":"bytes","internalType":"bytes"}],"stateMutability":"view"},{"type":"function","name":"finalizedAt","inputs":[{"name":"","type":"uint64","internalType":"uint64"}],"outputs":[{"name":"","type":"uint256","internalType":"uint256"}],"stateMutability":"view"},{"type":"function","name":"getReceiptsRoot","inputs":[{"name":"height","type":"uint64","internalType":"uint64"}],"outputs":[{"name":"","type":"bytes32","internalType":"bytes32"}],"stateMutability":"view"},{"type":"function","name":"headerHashes","inputs":[{"name":"","type":"uint64","internalType":"uint64"}],"outputs":[{"name":"","type":"bytes32","internalType":"bytes32"}],"stateMutability":"view"},{"type":"function","name":"isBLSAvailable","inputs":[],"outputs":[{"name":"","type":"bool","internalType":"bool"}],"stateMutability":"view"},{"type":"function","name":"isHeaderFinalized","inputs":[{"name":"height","type":"uint64","internalType":"uint64"}],"outputs":[{"name":"","type":"bool","internalType":"bool"}],"stateMutability":"view"},{"type":"function","name":"isValidator","inputs":[{"name":"","type":"address","internalType":"address"}],"outputs":[{"name":"","type":"bool","internalType":"bool"}],"stateMutability":"view"},{"type":"function","name":"latestFinalizedHeight","inputs":[],"outputs":[{"name":"","type":"uint64","internalType":"uint64"}],"stateMutability":"view"},{"type":"function","name":"owner","inputs":[],"outputs":[{"name":"","type":"address","internalType":"address"}],"stateMutability":"view"},{"type":"function","name":"pendingOwner","inputs":[],"outputs":[{"name":"","type":"address","internalType":"address"}],"stateMutability":"view"},{"type":"function","name":"receiptsRoots","inputs":[{"name":"","type":"uint64","internalType":"uint64"}],"outputs":[{"name":"","type":"bytes32","internalType":"bytes32"}],"stateMutability":"view"},{"type":"function","name":"removeValidator","inputs":[{"name":"validator","type":"address","internalType":"address"}],"outputs":[],"stateMutability":"nonpayable"},{"type":"function","name":"renounceOwnership","inputs":[],"outputs":[],"stateMutability":"nonpayable"},{"type":"function","name":"setBLSPublicKey","inputs":[{"name":"_blsPublicKey","type":"bytes","internalType":"bytes"}],"outputs":[],"stateMutability":"nonpayable"},{"type":"function","name":"setSignatureMode","inputs":[{"name":"_useEcdsaMode","type":"bool","internalType":"bool"}],"outputs":[],"stateMutability":"nonpayable"},{"type":"function","name":"submitBLSKeyRotation","inputs":[{"name":"newEpoch","type":"uint64","internalType":"uint64"},{"name":"newBLSPublicKey","type":"bytes","internalType":"bytes"},{"name":"blsSignature","type":"bytes","internalType":"bytes"}],"outputs":[],"stateMutability":"nonpayable"},{"type":"function","name":"submitHeader","inputs":[{"name":"height","type":"uint64","internalType":"uint64"},{"name":"parentHash","type":"bytes32","internalType":"bytes32"},{"name":"stateRoot","type":"bytes32","internalType":"bytes32"},{"name":"receiptsRoot","type":"bytes32","internalType":"bytes32"},{"name":"epoch","type":"uint64","internalType":"uint64"},{"name":"signatures","type":"bytes[]","internalType":"bytes[]"}],"outputs":[],"stateMutability":"nonpayable"},{"type":"function","name":"submitHeader","inputs":[{"name":"height","type":"uint64","internalType":"uint64"},{"name":"parentHash","type":"bytes32","internalType":"bytes32"},{"name":"stateRoot","type":"bytes32","internalType":"bytes32"},{"name":"receiptsRoot","type":"bytes32","internalType":"bytes32"},{"name":"epoch","type":"uint64","internalType":"uint64"},{"name":"signature","type":"bytes","internalType":"bytes"}],"outputs":[],"stateMutability":"nonpayable"},{"type":"function","name":"submitKeyRotation","inputs":[{"name":"newEpoch","type":"uint64","internalType":"uint64"},{"name":"newPublicKey","type":"bytes","internalType":"bytes"},{"name":"signatures","type":"bytes[]","internalType":"bytes[]"}],"outputs":[],"stateMutability":"nonpayable"},{"type":"function","name":"tempoChainId","inputs":[],"outputs":[{"name":"","type":"uint64","internalType":"uint64"}],"stateMutability":"view"},{"type":"function","name":"threshold","inputs":[],"outputs":[{"name":"","type":"uint256","internalType":"uint256"}],"stateMutability":"view"},{"type":"function","name":"transferOwnership","inputs":[{"name":"newOwner","type":"address","internalType":"address"}],"outputs":[],"stateMutability":"nonpayable"},{"type":"function","name":"useEcdsaMode","inputs":[],"outputs":[{"name":"","type":"bool","internalType":"bool"}],"stateMutability":"view"},{"type":"function","name":"validatorCount","inputs":[],"outputs":[{"name":"","type":"uint256","internalType":"uint256"}],"stateMutability":"view"},{"type":"function","name":"validators","inputs":[{"name":"","type":"uint256","internalType":"uint256"}],"outputs":[{"name":"","type":"address","internalType":"address"}],"stateMutability":"view"},{"type":"event","name":"BLSPublicKeyUpdated","inputs":[{"name":"epoch","type":"uint64","indexed":true,"internalType":"uint64"},{"name":"blsKey","type":"bytes","indexed":false,"internalType":"bytes"}],"anonymous":false},{"type":"event","name":"HeaderSubmitted","inputs":[{"name":"height","type":"uint64","indexed":true,"internalType":"uint64"},{"name":"headerHash","type":"bytes32","indexed":false,"internalType":"bytes32"},{"name":"receiptsRoot","type":"bytes32","indexed":false,"internalType":"bytes32"}],"anonymous":false},{"type":"event","name":"KeyRotated","inputs":[{"name":"newEpoch","type":"uint64","indexed":true,"internalType":"uint64"},{"name":"newPublicKey","type":"bytes","indexed":false,"internalType":"bytes"}],"anonymous":false},{"type":"event","name":"OwnershipTransferStarted","inputs":[{"name":"previousOwner","type":"address","indexed":true,"internalType":"address"},{"name":"newOwner","type":"address","indexed":true,"internalType":"address"}],"anonymous":false},{"type":"event","name":"OwnershipTransferred","inputs":[{"name":"previousOwner","type":"address","indexed":true,"internalType":"address"},{"name":"newOwner","type":"address","indexed":true,"internalType":"address"}],"anonymous":false},{"type":"event","name":"SignatureModeChanged","inputs":[{"name":"useEcdsa","type":"bool","indexed":false,"internalType":"bool"}],"anonymous":false},{"type":"event","name":"ValidatorAdded","inputs":[{"name":"validator","type":"address","indexed":true,"internalType":"address"}],"anonymous":false},{"type":"event","name":"ValidatorRemoved","inputs":[{"name":"validator","type":"address","indexed":true,"internalType":"address"}],"anonymous":false},{"type":"error","name":"BLSHashToG1Failed","inputs":[]},{"type":"error","name":"BLSInvalidPublicKeyLength","inputs":[]},{"type":"error","name":"BLSInvalidSignatureLength","inputs":[]},{"type":"error","name":"BLSPrecompileCallFailed","inputs":[]},{"type":"error","name":"BLSPrecompilesNotAvailable","inputs":[]},{"type":"error","name":"BLSVerificationFailed","inputs":[]},{"type":"error","name":"ECDSAInvalidSignature","inputs":[]},{"type":"error","name":"ECDSAInvalidSignatureLength","inputs":[{"name":"length","type":"uint256","internalType":"uint256"}]},{"type":"error","name":"ECDSAInvalidSignatureS","inputs":[{"name":"s","type":"bytes32","internalType":"bytes32"}]},{"type":"error","name":"HeightNotMonotonic","inputs":[]},{"type":"error","name":"InvalidBLSPublicKeyLength","inputs":[]},{"type":"error","name":"InvalidBLSSignatureLength","inputs":[]},{"type":"error","name":"InvalidParentHash","inputs":[]},{"type":"error","name":"InvalidSignature","inputs":[]},{"type":"error","name":"InvalidSignatureCount","inputs":[]},{"type":"error","name":"OwnableInvalidOwner","inputs":[{"name":"owner","type":"address","internalType":"address"}]},{"type":"error","name":"OwnableUnauthorizedAccount","inputs":[{"name":"account","type":"address","internalType":"address"}]},{"type":"error","name":"ThresholdNotMet","inputs":[]},{"type":"error","name":"ValidatorExists","inputs":[]},{"type":"error","name":"ValidatorNotFound","inputs":[]}],"bytecode":{"object":"0x60a03461011e57601f61277a38819003918201601f19168301916001600160401b0383118484101761012257808492604094855283398101031261011e57610052602061004b83610136565b9201610136565b331561010b576001545f8054336001600160a01b0319821681178355604051959394939290916001600160a01b0316907f8be0079c531659141344cd1fd0a4f28419497f9722a3daafe3b4186f6b6457e09080a36080526001600160e01b031990911660a09190911b600160a01b600160e01b03161760019081556007805460ff1916909117905561262f908161014b8239608051818181610387015281816108fc01528181610b4f0152818161109d01526114050152f35b631e4fbdf760e01b5f525f60045260245ffd5b5f80fd5b634e487b7160e01b5f52604160045260245ffd5b51906001600160401b038216820361011e5756fe60806040526004361015610011575f80fd5b5f3560e01c80630c6038ed146101a05780630f43a677146101ff57806322504a85146101fa57806335aa2e44146101f557806340a141ff146101f057806342cde4e8146101eb57806344954b4a146101e6578063472efe38146101e15780634d238c8e146101dc578063548bed75146101d75780636bbe869d146101d2578063715018a6146101cd57806376671808146101c857806379732fbc146101c357806379ba5097146101be57806379c4473a146101b9578063860af5e6146101b45780638da5cb5b146101af5780639e39bbfd146101aa578063a09d3879146101a5578063c06b35b0146101a0578063c83eacc21461019b578063c9e73d4c14610196578063cc54ebf714610191578063d0deef171461018c578063d49efac014610187578063e022676014610182578063e30c39781461017d578063e539ed1714610178578063f2fde38b146101735763facd743b1461016e575f80fd5b6115f6565b61158f565b61156d565b611545565b611369565b611345565b61127b565b611243565b61120b565b6111d1565b610234565b6111ab565b611171565b61114a565b610fa2565b610f77565b610d9c565b610d62565b610d39565b610cd2565b610b73565b610b30565b610a34565b6109a9565b61082e565b6107e4565b61069b565b61061f565b6102b9565b61026c565b600435906001600160401b038216820361021a57565b5f80fd5b608435906001600160401b038216820361021a57565b3461021a57602036600319011261021a576001600160401b03610255610204565b165f526005602052602060405f2054604051908152f35b3461021a575f36600319011261021a576020600a54604051908152f35b9181601f8401121561021a578235916001600160401b03831161021a576020808501948460051b01011161021a57565b3461021a5760c036600319011261021a576102d2610204565b6024359060443590606435906102e661021e565b9260a4356001600160401b03811161021a57610306903690600401610289565b6003546001600160401b0316959161032c6103208861163c565b6001600160401b031690565b966001600160401b03861697881480156105dd575b61034a9061165f565b6001600160401b038116881115806105cb575b6105bc576001600160401b038116610585575b50876040516103ba816103ac878b8a60208501978d7f00000000000000000000000000000000000000000000000000000000000000008a61169c565b03601f198101835282610e75565b519020906103ca60075460ff1690565b15610531576103d8836117f8565b925f5b8181106104fd575050506104e3936103ac7f2993dbc1bc5a75fad02580d988d66672fb97594b89f81503088f9e1f66e21c0498999461041e899561046c95611e06565b60405194859360208501978a89939160709593916001600160401b0360c01b9060c01b1685526008850152602884015260488301526001600160401b0360c01b9060c01b1660688201520190565b519020918261048c826001600160401b03165f52600460205260405f2090565b55836104a9826001600160401b03165f52600560205260405f2090565b55426104c6826001600160401b03165f52600660205260405f2090565b556001600160401b03166001600160401b03196003541617600355565b60408051918252602082019290925290819081015b0390a2005b8061051561050e60019385876117a0565b3691611870565b61051f8288611841565b5261052a8187611841565b50016103db565b936103ac7f2993dbc1bc5a75fad02580d988d66672fb97594b89f81503088f9e1f66e21c0498999461058061046c9461057a876104e39a61057560018f9b14611705565b611766565b91611cda565b61041e565b6105a0906001600160401b03165f52600460205260405f2090565b5488036105ad575f610370565b63591c836760e01b5f5260045ffd5b6357061c1360e11b5f5260045ffd5b506001600160401b038116151561035d565b506001600160401b03811615610341565b634e487b7160e01b5f52603260045260245ffd5b600a5481101561061a57600a5f5260205f2001905f90565b6105ee565b3461021a57602036600319011261021a57600435600a5481101561021a57600a5f527fc65a7bb8d6351c1cf70c95a316cc6a92839c986682d98bc35f958f4883f9d2a801546040516001600160a01b039091168152602090f35b602090600319011261021a576004356001600160a01b038116810361021a5790565b3461021a576106a936610679565b6106b1611ef8565b6001600160a01b0381165f9081526009602052604090206106dc906106d8905b5460ff1690565b1590565b6107d5576001600160a01b03165f818152600960205260408120805460ff191690555b600a5490818110156107ce578261072f61071883610602565b90546001600160a01b039260039290921b1c821690565b161461073f5760019150016106ff565b61077461076e610759610754610798956118a6565b610602565b905460039190911b1c6001600160a01b031690565b91610602565b81546001600160a01b0393841660039290921b91821b9390911b1916919091179055565b6107a06118b4565b6107a8611f19565b7fe1434e25d6611e0db941968fdc97811c982ac1602e951637d206f5fdda9dd8f15f80a2005b50506107a0565b63580e542f60e01b5f5260045ffd5b3461021a575f36600319011261021a576020600854604051908152f35b9181601f8401121561021a578235916001600160401b03831161021a576020838186019501011161021a57565b3461021a57606036600319011261021a57610847610204565b6024356001600160401b03811161021a57610866903690600401610801565b6044356001600160401b03811161021a57610885903690600401610801565b6001549193916108a09060a01c6001600160401b0316610320565b946108b66001600160401b03821696871161191b565b610100840361099a57610929610956927f372ab7c5944f1577c45b82904b419a4cd3bd305b60b2d062228a90aa641a5bd3966040516020810190610921816103ac8b8b8a7f00000000000000000000000000000000000000000000000000000000000000008861195d565b519020611cda565b6001805467ffffffffffffffff60a01b191660a09290921b67ffffffffffffffff60a01b16919091179055565b6109608282611a52565b61096a8282611b33565b835f5160206125da5f395f51905f5260405180610988868683611c08565b0390a26104f860405192839283611c08565b637b7d6d1760e01b5f5260045ffd5b3461021a57602036600319011261021a576004358015801580920361021a576109d0611ef8565b80610a25575b610a165760207fb1ad7aeba0be5ac6144392b92e31727e4f376c05eac1d9d6c8183be2fa70dff79160ff196007541660ff821617600755604051908152a1005b63d5313b2b60e01b5f5260045ffd5b50610a2e611fd0565b156109d6565b3461021a57610a4236610679565b610a4a611ef8565b6001600160a01b0381165f8181526009602052604090205490919060ff16610b2157815f52600960205260405f20600160ff19825416179055600a549068010000000000000000821015610b1c5760018201600a55600a5482101561061a57600a5f527fc65a7bb8d6351c1cf70c95a316cc6a92839c986682d98bc35f958f4883f9d2a890910180546001600160a01b0319166001600160a01b03909216919091179055610af6611f19565b7fe366c1c0452ed8eec96861e9e54141ebff23c9ec89fe27b996b45f5ec38849875f80a2005b610e61565b633f4dc7d360e11b5f5260045ffd5b3461021a575f36600319011261021a5760206040516001600160401b037f0000000000000000000000000000000000000000000000000000000000000000168152f35b3461021a57602036600319011261021a576004356001600160401b03811161021a57610ba3903690600401610801565b610bab611ef8565b610100810361099a576001600160401b038111610b1c57610bd681610bd1600254610e29565b6119b3565b5f601f8211600114610c425790610c1181805f5160206125da5f395f51905f52945f91610c37575b508160011b915f199060031b1c19161790565b6002555b6001546001600160401b039060a01c811616926104f860405192839283611c08565b90508501355f610bfe565b60025f52601f198216907f405787fa12a823e0f2b7631cc41b3ba8828b3321ca811111fa75cd3aa3bb5ace915f5b818110610cba575090835f5160206125da5f395f51905f5294939210610ca1575b5050600181811b01600255610c15565b8401355f19600384901b60f8161c191690555f80610c91565b91926020600181928689013581550194019201610c70565b3461021a575f36600319011261021a57610cea611ef8565b600180546001600160a01b03191690555f80546001600160a01b0319811682556001600160a01b03167f8be0079c531659141344cd1fd0a4f28419497f9722a3daafe3b4186f6b6457e08280a3005b3461021a575f36600319011261021a5760206001600160401b0360015460a01c16604051908152f35b3461021a575f36600319011261021a5760206040517fb7e5c549800b144fb8b534568f698ddeb69e84956c61706fee8fefdb813d3a8a8152f35b3461021a575f36600319011261021a57600154336001600160a01b0390911603610e1657600180546001600160a01b03191690555f8054336001600160a01b0319821681178355916001600160a01b03909116907f8be0079c531659141344cd1fd0a4f28419497f9722a3daafe3b4186f6b6457e09080a3005b63118cdaa760e01b5f523360045260245ffd5b90600182811c92168015610e57575b6020831014610e4357565b634e487b7160e01b5f52602260045260245ffd5b91607f1691610e38565b634e487b7160e01b5f52604160045260245ffd5b90601f801991011681019081106001600160401b03821117610b1c57604052565b604051905f8260025491610ea983610e29565b8083529260018116908115610f2e5750600114610ecf575b610ecd92500383610e75565b565b5060025f90815290917f405787fa12a823e0f2b7631cc41b3ba8828b3321ca811111fa75cd3aa3bb5ace5b818310610f12575050906020610ecd92820101610ec1565b6020919350806001915483858901015201910190918492610efa565b60209250610ecd94915060ff191682840152151560051b820101610ec1565b602060409281835280519182918282860152018484015e5f828201840152601f01601f1916010190565b3461021a575f36600319011261021a57610f9e610f92610e96565b60405191829182610f4d565b0390f35b3461021a5760c036600319011261021a57610fbb610204565b6024356044359160643590610fce61021e565b9260a4356001600160401b03811161021a57610fee903690600401610801565b9590946110036003546001600160401b031690565b966110106103208961163c565b976001600160401b0386169889148015611139575b61102e9061165f565b6001600160401b03811689111580611127575b6105bc576001600160401b0381166110f7575b50826103ac8361046c937f2993dbc1bc5a75fad02580d988d66672fb97594b89f81503088f9e1f66e21c049a8989986110c26104e39b6103ac8f9b8c60405195869460208601987f00000000000000000000000000000000000000000000000000000000000000008a61169c565b519020906110d260075460ff1690565b156110ed578061041e936110e7920190611c2f565b90611e06565b6105809291611cda565b61111690979493976001600160401b03165f52600460205260405f2090565b5483036105ad575f96929396611054565b506001600160401b0381161515611041565b506001600160401b03811615611025565b3461021a575f36600319011261021a575f546040516001600160a01b039091168152602090f35b3461021a575f36600319011261021a5760206040517fe5af582cf3f77d10e5e9ea85538be744d6b61da44268eb68b35faaf4639edb648152f35b3461021a575f36600319011261021a5760206001600160401b0360035416604051908152f35b3461021a57602036600319011261021a576001600160401b036111f2610204565b165f526004602052602060405f20541515604051908152f35b3461021a57602036600319011261021a576001600160401b0361122c610204565b165f526006602052602060405f2054604051908152f35b3461021a57602036600319011261021a576001600160401b03611264610204565b165f526004602052602060405f2054604051908152f35b3461021a575f36600319011261021a576040515f600b5461129b81610e29565b808452906001811690811561132157506001146112c3575b610f9e83610f9281850382610e75565b600b5f9081527f0175b7a638427703f0dbe7bb9bbf987a2551717b34e79f33b5b1008d1fa01db9939250905b80821061130757509091508101602001610f926112b3565b9192600181602092548385880101520191019092916112ef565b60ff191660208086019190915291151560051b84019091019150610f9290506112b3565b3461021a575f36600319011261021a57602061135f611fd0565b6040519015158152f35b3461021a57606036600319011261021a57611382610204565b6024356001600160401b03811161021a576113a1903690600401610801565b6044356001600160401b03811161021a576113c0903690600401610289565b6001549193916113db9060a01c6001600160401b0316610320565b936113f16001600160401b03871695861161191b565b604051602081019061142a816103ac88888c7f00000000000000000000000000000000000000000000000000000000000000008861195d565b5190209061143a60075460ff1690565b1561150557611448836117f8565b925f5b8181106114d85750505094610929611485927f372ab7c5944f1577c45b82904b419a4cd3bd305b60b2d062228a90aa641a5bd39697611e06565b61148f8282611b33565b61010082146114a8575b6104f860405192839283611c08565b6114b28282611a52565b835f5160206125da5f395f51905f52604051806114d0868683611c08565b0390a2611499565b806114e961050e60019385876117a0565b6114f38288611841565b526114fe8187611841565b500161144b565b7f372ab7c5944f1577c45b82904b419a4cd3bd305b60b2d062228a90aa641a5bd395969161057a846115409361057560016114859814611705565b610929565b3461021a575f36600319011261021a576001546040516001600160a01b039091168152602090f35b3461021a575f36600319011261021a57602060ff600754166040519015158152f35b3461021a5761159d36610679565b6115a5611ef8565b60018060a01b0316806bffffffffffffffffffffffff60a01b600154161760015560018060a01b035f54167f38d16b8cac22d99fc7c124b9cd0de2d3fa1faef420bfe791d8c362d765e227005f80a3005b3461021a576001600160a01b0361160c36610679565b165f526009602052602060ff60405f2054166040519015158152f35b634e487b7160e01b5f52601160045260245ffd5b6001600160401b036001911601906001600160401b03821161165a57565b611628565b1561166657565b60405162461bcd60e51b815260206004820152600e60248201526d6e6f6e2d636f6e746967756f757360901b6044820152606490fd5b7fb7e5c549800b144fb8b534568f698ddeb69e84956c61706fee8fefdb813d3a8a81526001600160c01b031960c092831b8116602083015292821b8316602882015260308101939093526050830193909352607082019390935292901b16609082015260980190565b1561170c57565b60405162461bcd60e51b815260206004820152602c60248201527f424c53206d6f646520657870656374732073696e676c6520616767726567617460448201526b6564207369676e617475726560a01b6064820152608490fd5b901561061a57803590601e198136030182121561021a5701908135916001600160401b03831161021a57602001823603811361021a579190565b919081101561061a5760051b81013590601e198136030182121561021a5701908135916001600160401b03831161021a57602001823603811361021a579190565b6001600160401b038111610b1c5760051b60200190565b90611802826117e1565b61180f6040519182610e75565b8281528092611820601f19916117e1565b01905f5b82811061183057505050565b806060602080938501015201611824565b805182101561061a5760209160051b010190565b6001600160401b038111610b1c57601f01601f191660200190565b92919261187c82611855565b9161188a6040519384610e75565b82948184528183011161021a578281602093845f960137010152565b5f1981019190821161165a57565b600a548015611907575f19810190600a5482101561061a57600a5f8190527fc65a7bb8d6351c1cf70c95a316cc6a92839c986682d98bc35f958f4883f9d2a790910180546001600160a01b031916905555565b634e487b7160e01b5f52603160045260245ffd5b1561192257565b60405162461bcd60e51b815260206004820152601360248201527245706f6368206d75737420696e63726561736560681b6044820152606490fd5b7fe5af582cf3f77d10e5e9ea85538be744d6b61da44268eb68b35faaf4639edb6481526001600160c01b031960c092831b811660208301529290911b90911660288201526030929182908483013701015f815290565b601f81116119bf575050565b60025f5260205f20906020601f840160051c830193106119f9575b601f0160051c01905b8181106119ee575050565b5f81556001016119e3565b90915081906119da565b601f8211611a1057505050565b5f5260205f20906020601f840160051c83019310611a48575b601f0160051c01905b818110611a3d575050565b5f8155600101611a32565b9091508190611a29565b91906001600160401b038111610b1c57611a7881611a71600254610e29565b6002611a03565b5f601f8211600114611ab6578190611aa693945f92611aab575b50508160011b915f199060031b1c19161790565b600255565b013590505f80611a92565b60025f52601f198216937f405787fa12a823e0f2b7631cc41b3ba8828b3321ca811111fa75cd3aa3bb5ace915f5b868110611b1b5750836001959610611b02575b505050811b01600255565b01355f19600384901b60f8161c191690555f8080611af7565b90926020600181928686013581550194019101611ae4565b91906001600160401b038111610b1c57611b5981611b52600b54610e29565b600b611a03565b5f601f8211600114611b8b578190611b8693945f92611aab5750508160011b915f199060031b1c19161790565b600b55565b600b5f52601f198216937f0175b7a638427703f0dbe7bb9bbf987a2551717b34e79f33b5b1008d1fa01db9915f5b868110611bf05750836001959610611bd7575b505050811b01600b55565b01355f19600384901b60f8161c191690555f8080611bcc565b90926020600181928686013581550194019101611bb9565b90918060409360208452816020850152848401375f828201840152601f01601f1916010190565b60208183031261021a578035906001600160401b03821161021a570181601f8201121561021a57803590611c62826117e1565b92611c706040519485610e75565b82845260208085019360051b8301019181831161021a5760208101935b838510611c9c57505050505090565b84356001600160401b03811161021a57820183603f8201121561021a57602091611ccf8583604086809601359101611870565b815201940193611c8d565b919060808203611de957610100611cf2600254610e29565b0361099a57611d02913691611870565b90611d0b610e96565b916080815103611dda57610100835103611dcb57611d5d611d635f946103ac611d3c611d37889761211c565b612218565b91611d5d611d48612005565b93604051968795611d5d60208801809b611f8f565b90611f8f565b519060115afa611d71611fa1565b90158015611dbf575b611db0576001611d9682602080611d9b9551830101910161210d565b141590565b611da157565b636a4adb0b60e11b5f5260045ffd5b6336fbc46960e11b5f5260045ffd5b50602081511415611d7a565b636211cf4560e01b5f5260045ffd5b63ec19c2c160e01b5f5260045ffd5b633fe9a35f60e21b5f5260045ffd5b5f19811461165a5760010190565b9190805191600854809310611ee9575f919082805b8351821015611edd5790839291611e3f611e3883611e4897611841565b51896122f9565b90969196612351565b6001600160a01b039081169085161115611ea0576001600160a01b0384165f908152600960205260409020611e7c906106d1565b611e8c575b600101909192611e1b565b93611e98600191611df8565b949050611e81565b60405162461bcd60e51b815260206004820152601560248201527414da59db985d1d5c995cc81b9bdd081cdbdc9d1959605a1b6044820152606490fd5b505093505010611ee957565b6359fa4a9360e01b5f5260045ffd5b5f546001600160a01b03163303610e1657565b604001908160401161165a57565b600a5480611f2957506001600855565b8060011b90810460020361165a576002810180911161165a5760039004600855565b60405160a09190611f5c8382610e75565b6080815291601f1901366020840137565b60405160609190611f7e8382610e75565b6040815291601f1901366020840137565b805191908290602001825e015f815290565b3d15611fcb573d90611fb282611855565b91611fc06040519384610e75565b82523d5f602084013e565b606090565b5f80611fda611f4b565b604051611ff3816103ac6020820194611d5d8682611f8f565b5190600b5afa612001611fa1565b5090565b6040519061201561012083610e75565b61010082527fcb3e287e85a763af267492ab572e99ab3f370d275cec1da1aaa9075ff05f79be610100836f024aa2b2f08f0a91260805272dc5105160208201527fc6e47ad4fa403b02b4510b647ae3d1770bac0326a805bbefd48056c8c121bdb860408201526f13e02b6052719f607dacd3a088274f6560608201527f596bd0d09920b61ab5da61bbdc7f5049334cf11213945d57e5ac7d055d042b7e60808201526fce5d527727d6e118cc9cdc6da2e351aa60a08201527fdfd9baa8cbdd3a76d429a695160d12c923ac9cc3baca289e193548608b82801060c08201526f0606c4a02ea734cc32acd2b02bc28b9960e08201520152565b9081602091031261021a575190565b5f8091612127611f6d565b90604082015260208151910160125afa61213f611fa1565b9015801561215e575b61214f5790565b634ed07c3f60e01b5f5260045ffd5b50608081511415612148565b1561217157565b60405162461bcd60e51b815260206004820152601760248201527f496e76616c696420473120706f696e74206c656e6774680000000000000000006044820152606490fd5b604051906121c5606083610e75565b604082527f64774b84f38512bf6730d2a0f6b0f6241eabfffeb153ffffb9feffffffffaaab6040836f1a0111ea397fe69a4b1ba7b6434bacd760208201520152565b90815181101561061a570160200190565b90612226608083511461216a565b61222e6121b6565b91612237611f4b565b925f5b604081106122d6575061224b611f6d565b915f5b604081106122ab5750509061226291612453565b5f5b60408110612270575050565b8061228e61228060019385612207565b516001600160f81b03191690565b6122a461229a83611f0b565b915f1a9187612207565b5301612264565b806122c36122806122bd600194611f0b565b85612207565b5f1a6122cf8287612207565b530161224e565b806122e661228060019386612207565b5f1a6122f28288612207565b530161223a565b8151919060418303612329576123229250602082015190606060408401519301515f1a9061254c565b9192909190565b50505f9160029190565b6004111561233d57565b634e487b7160e01b5f52602160045260245ffd5b61235a81612333565b80612363575050565b61236c81612333565b600181036123835763f645eedf60e01b5f5260045ffd5b61238c81612333565b600281036123a7575063fce698f760e01b5f5260045260245ffd5b806123b3600392612333565b146123bb5750565b6335e2f38360e21b5f5260045260245ffd5b156123d457565b60405162461bcd60e51b8152602060048201526016602482015275092dcecc2d8d2c840dee0cae4c2dcc840d8cadccee8d60531b6044820152606490fd5b801561165a575f190190565b600191820b910b0390617fff198212617fff83131761165a57565b60010b6101000190617fff8213617fff1983121761165a57565b919091604081511480612541575b61246a906123cd565b612472611f6d565b926040905f825b6124835750505050565b6124e7906124e26124be6124b46124ae6124a86122806124a28a6118a6565b8b612207565b60f81c90565b60ff1690565b61ffff1660010b90565b6124dc6124b46124ae6124a86122806124d68b6118a6565b8a612207565b9061241e565b61241e565b5f8160010b125f14612536576124ff61252f91612439565b926001935b612529612510836118a6565b60f89290921b6001600160f81b0319165f1a9189612207565b53612412565b9182612479565b5f9261252f91612504565b508251604014612461565b91907f7fffffffffffffffffffffffffffffff5d576e7357a4501ddfe92f46681b20a084116125ce579160209360809260ff5f9560405194855216868401526040830152606082015282805260015afa156125c3575f516001600160a01b038116156125b957905f905f90565b505f906001905f90565b6040513d5f823e3d90fd5b5050505f916003919056fe48b3aa711887c5c9a4bc0f4bbf4b7dfe91a9d6528b3dfc328a21ed26fc335fa5a2646970667358221220090c665024fb56fdceea619b44d939fb861eb7a2f5f51598f463f77427b965f364736f6c634300081c0033","linkReferences":{}},"methodIdentifiers":{"HEADER_DOMAIN()":"79732fbc","ROTATION_DOMAIN()":"9e39bbfd","acceptOwnership()":"79ba5097","addValidator(address)":"4d238c8e","blsPublicKey()":"79c4473a","currentEpoch()":"76671808","currentPublicKey()":"d0deef17","finalizedAt(uint64)":"c9e73d4c","getReceiptsRoot(uint64)":"0c6038ed","headerHashes(uint64)":"cc54ebf7","isBLSAvailable()":"d49efac0","isHeaderFinalized(uint64)":"c83eacc2","isValidator(address)":"facd743b","latestFinalizedHeight()":"a09d3879","owner()":"8da5cb5b","pendingOwner()":"e30c3978","receiptsRoots(uint64)":"c06b35b0","removeValidator(address)":"40a141ff","renounceOwnership()":"715018a6","setBLSPublicKey(bytes)":"6bbe869d","setSignatureMode(bool)":"472efe38","submitBLSKeyRotation(uint64,bytes,bytes)":"44954b4a","submitHeader(uint64,bytes32,bytes32,bytes32,uint64,bytes)":"860af5e6","submitHeader(uint64,bytes32,bytes32,bytes32,uint64,bytes[])":"22504a85","submitKeyRotation(uint64,bytes,bytes[])":"e0226760","tempoChainId()":"548bed75","threshold()":"42cde4e8","transferOwnership(address)":"f2fde38b","useEcdsaMode()":"e539ed17","validatorCount()":"0f43a677","validators(uint256)":"35aa2e44"},"id":35}