{"abi":[{"type":"constructor","inputs":[{"name":"_lightClient","type":"address","internalType":"address"},{"name":"_tempoChainId","type":"uint64","internalType":"uint64"}],"stateMutability":"nonpayable"},{"type":"function","name":"BURN_ATTESTATION_DOMAIN","inputs":[],"outputs":[{"name":"","type":"bytes32","internalType":"bytes32"}],"stateMutability":"view"},{"type":"function","name":"BURN_EVENT_SIGNATURE","inputs":[],"outputs":[{"name":"","type":"bytes32","internalType":"bytes32"}],"stateMutability":"view"},{"type":"function","name":"TEMPO_BRIDGE","inputs":[],"outputs":[{"name":"","type":"address","internalType":"address"}],"stateMutability":"view"},{"type":"function","name":"acceptOwnership","inputs":[],"outputs":[],"stateMutability":"nonpayable"},{"type":"function","name":"addToken","inputs":[{"name":"token","type":"address","internalType":"address"}],"outputs":[],"stateMutability":"nonpayable"},{"type":"function","name":"deposit","inputs":[{"name":"token","type":"address","internalType":"address"},{"name":"amount","type":"uint256","internalType":"uint256"},{"name":"tempoRecipient","type":"address","internalType":"address"}],"outputs":[{"name":"depositId","type":"bytes32","internalType":"bytes32"}],"stateMutability":"nonpayable"},{"type":"function","name":"depositNonces","inputs":[{"name":"","type":"address","internalType":"address"}],"outputs":[{"name":"","type":"uint64","internalType":"uint64"}],"stateMutability":"view"},{"type":"function","name":"everSupportedTokens","inputs":[{"name":"","type":"address","internalType":"address"}],"outputs":[{"name":"","type":"bool","internalType":"bool"}],"stateMutability":"view"},{"type":"function","name":"isBurnSpent","inputs":[{"name":"burnId","type":"bytes32","internalType":"bytes32"}],"outputs":[{"name":"","type":"bool","internalType":"bool"}],"stateMutability":"view"},{"type":"function","name":"isUnlocked","inputs":[{"name":"burnId","type":"bytes32","internalType":"bytes32"}],"outputs":[{"name":"","type":"bool","internalType":"bool"}],"stateMutability":"view"},{"type":"function","name":"lightClient","inputs":[],"outputs":[{"name":"","type":"address","internalType":"address"}],"stateMutability":"view"},{"type":"function","name":"owner","inputs":[],"outputs":[{"name":"","type":"address","internalType":"address"}],"stateMutability":"view"},{"type":"function","name":"pendingOwner","inputs":[],"outputs":[{"name":"","type":"address","internalType":"address"}],"stateMutability":"view"},{"type":"function","name":"removeToken","inputs":[{"name":"token","type":"address","internalType":"address"}],"outputs":[],"stateMutability":"nonpayable"},{"type":"function","name":"renounceOwnership","inputs":[],"outputs":[],"stateMutability":"nonpayable"},{"type":"function","name":"spentBurnIds","inputs":[{"name":"","type":"bytes32","internalType":"bytes32"}],"outputs":[{"name":"","type":"bool","internalType":"bool"}],"stateMutability":"view"},{"type":"function","name":"supportedTokens","inputs":[{"name":"","type":"address","internalType":"address"}],"outputs":[{"name":"","type":"bool","internalType":"bool"}],"stateMutability":"view"},{"type":"function","name":"tempoChainId","inputs":[],"outputs":[{"name":"","type":"uint64","internalType":"uint64"}],"stateMutability":"view"},{"type":"function","name":"transferOwnership","inputs":[{"name":"newOwner","type":"address","internalType":"address"}],"outputs":[],"stateMutability":"nonpayable"},{"type":"function","name":"unlock","inputs":[{"name":"burnId","type":"bytes32","internalType":"bytes32"},{"name":"tempoHeight","type":"uint64","internalType":"uint64"},{"name":"originToken","type":"address","internalType":"address"},{"name":"recipient","type":"address","internalType":"address"},{"name":"amount","type":"uint64","internalType":"uint64"},{"name":"signatures","type":"bytes[]","internalType":"bytes[]"}],"outputs":[],"stateMutability":"nonpayable"},{"type":"function","name":"unlockWithProof","inputs":[{"name":"burnId","type":"bytes32","internalType":"bytes32"},{"name":"recipient","type":"address","internalType":"address"},{"name":"amount","type":"uint256","internalType":"uint256"},{"name":"proof","type":"bytes","internalType":"bytes"}],"outputs":[],"stateMutability":"nonpayable"},{"type":"event","name":"Deposited","inputs":[{"name":"depositId","type":"bytes32","indexed":true,"internalType":"bytes32"},{"name":"token","type":"address","indexed":true,"internalType":"address"},{"name":"depositor","type":"address","indexed":true,"internalType":"address"},{"name":"amount","type":"uint64","indexed":false,"internalType":"uint64"},{"name":"tempoRecipient","type":"address","indexed":false,"internalType":"address"},{"name":"nonce","type":"uint64","indexed":false,"internalType":"uint64"}],"anonymous":false},{"type":"event","name":"OwnershipTransferStarted","inputs":[{"name":"previousOwner","type":"address","indexed":true,"internalType":"address"},{"name":"newOwner","type":"address","indexed":true,"internalType":"address"}],"anonymous":false},{"type":"event","name":"OwnershipTransferred","inputs":[{"name":"previousOwner","type":"address","indexed":true,"internalType":"address"},{"name":"newOwner","type":"address","indexed":true,"internalType":"address"}],"anonymous":false},{"type":"event","name":"TokenAdded","inputs":[{"name":"token","type":"address","indexed":true,"internalType":"address"}],"anonymous":false},{"type":"event","name":"TokenRemoved","inputs":[{"name":"token","type":"address","indexed":true,"internalType":"address"}],"anonymous":false},{"type":"event","name":"Unlocked","inputs":[{"name":"burnId","type":"bytes32","indexed":true,"internalType":"bytes32"},{"name":"token","type":"address","indexed":true,"internalType":"address"},{"name":"recipient","type":"address","indexed":true,"internalType":"address"},{"name":"amount","type":"uint64","indexed":false,"internalType":"uint64"}],"anonymous":false},{"type":"error","name":"AmountTooLarge","inputs":[]},{"type":"error","name":"BurnAlreadySpent","inputs":[]},{"type":"error","name":"ECDSAInvalidSignature","inputs":[]},{"type":"error","name":"ECDSAInvalidSignatureLength","inputs":[{"name":"length","type":"uint256","internalType":"uint256"}]},{"type":"error","name":"ECDSAInvalidSignatureS","inputs":[{"name":"s","type":"bytes32","internalType":"bytes32"}]},{"type":"error","name":"HeaderNotFinalized","inputs":[]},{"type":"error","name":"InvalidBurnEvent","inputs":[]},{"type":"error","name":"InvalidProofFormat","inputs":[]},{"type":"error","name":"InvalidReceiptProof","inputs":[]},{"type":"error","name":"InvalidRecipient","inputs":[]},{"type":"error","name":"OwnableInvalidOwner","inputs":[{"name":"owner","type":"address","internalType":"address"}]},{"type":"error","name":"OwnableUnauthorizedAccount","inputs":[{"name":"account","type":"address","internalType":"address"}]},{"type":"error","name":"ReentrancyGuardReentrantCall","inputs":[]},{"type":"error","name":"SafeERC20FailedOperation","inputs":[{"name":"token","type":"address","internalType":"address"}]},{"type":"error","name":"ThresholdNotMet","inputs":[]},{"type":"error","name":"TokenNotSupported","inputs":[]},{"type":"error","name":"ZeroAmount","inputs":[]}],"bytecode":{"object":"0x60c060405234801561000f575f5ffd5b50604051612f6a380380612f6a833981810160405281019061003191906102f1565b335f73ffffffffffffffffffffffffffffffffffffffff168173ffffffffffffffffffffffffffffffffffffffff16036100a2575f6040517f1e4fbdf7000000000000000000000000000000000000000000000000000000008152600401610099919061033e565b60405180910390fd5b6100b18161012d60201b60201c565b5060016100d06100c561016360201b60201c565b61018c60201b60201c565b5f01819055508173ffffffffffffffffffffffffffffffffffffffff1660808173ffffffffffffffffffffffffffffffffffffffff16815250508067ffffffffffffffff1660a08167ffffffffffffffff16815250505050610357565b60015f6101000a81549073ffffffffffffffffffffffffffffffffffffffff02191690556101608161019560201b60201c565b50565b5f7f9b779b17422d0df92223018b32b4d1fa46e071723d6817e2486d003becc55f005f1b905090565b5f819050919050565b5f5f5f9054906101000a900473ffffffffffffffffffffffffffffffffffffffff169050815f5f6101000a81548173ffffffffffffffffffffffffffffffffffffffff021916908373ffffffffffffffffffffffffffffffffffffffff1602179055508173ffffffffffffffffffffffffffffffffffffffff168173ffffffffffffffffffffffffffffffffffffffff167f8be0079c531659141344cd1fd0a4f28419497f9722a3daafe3b4186f6b6457e060405160405180910390a35050565b5f5ffd5b5f73ffffffffffffffffffffffffffffffffffffffff82169050919050565b5f6102838261025a565b9050919050565b61029381610279565b811461029d575f5ffd5b50565b5f815190506102ae8161028a565b92915050565b5f67ffffffffffffffff82169050919050565b6102d0816102b4565b81146102da575f5ffd5b50565b5f815190506102eb816102c7565b92915050565b5f5f6040838503121561030757610306610256565b5b5f610314858286016102a0565b9250506020610325858286016102dd565b9150509250929050565b61033881610279565b82525050565b5f6020820190506103515f83018461032f565b92915050565b60805160a051612bdd61038d5f395f818161078d015261125201525f81816104a40152818161096d0152610fd50152612bdd5ff3fe608060405234801561000f575f5ffd5b5060043610610134575f3560e01c806379ba5097116100b6578063d48bfca71161007a578063d48bfca714610326578063e279456514610342578063e30c397814610360578063f2fde38b1461037e578063f45346dc1461039a578063f961ade3146103ca57610134565b806379ba5097146102925780638da5cb5b1461029c57806393363dbf146102ba578063b5700e68146102ea578063b7b8fb561461030857610134565b8063548bed75116100fd578063548bed75146102005780635fa7b5841461021e57806361b425221461023a57806368c4ac2614610258578063715018a61461028857610134565b8062398ad2146101385780630e6e55801461015457806322cc9b2c146101845780633dadc1e1146101a057806349b01d25146101d0575b5f5ffd5b610152600480360381019061014d9190611e5e565b6103fa565b005b61016e60048036038101906101699190611ee2565b610473565b60405161017b9190611f27565b60405180910390f35b61019e60048036038101906101999190611fd2565b610499565b005b6101ba60048036038101906101b59190611ee2565b610748565b6040516101c79190611f27565b60405180910390f35b6101ea60048036038101906101e5919061207c565b61076e565b6040516101f79190611f27565b60405180910390f35b61020861078b565b60405161021591906120b6565b60405180910390f35b6102386004803603810190610233919061207c565b6107af565b005b610242610851565b60405161024f91906120de565b60405180910390f35b610272600480360381019061026d919061207c565b610869565b60405161027f9190611f27565b60405180910390f35b610290610886565b005b61029a610899565b005b6102a4610927565b6040516102b191906120de565b60405180910390f35b6102d460048036038101906102cf9190611ee2565b61094e565b6040516102e19190611f27565b60405180910390f35b6102f261096b565b6040516102ff91906120de565b60405180910390f35b61031061098f565b60405161031d9190612106565b60405180910390f35b610340600480360381019061033b919061207c565b6109b3565b005b61034a610aab565b6040516103579190612106565b60405180910390f35b610368610acf565b60405161037591906120de565b60405180910390f35b6103986004803603810190610393919061207c565b610af7565b005b6103b460048036038101906103af919061211f565b610ba3565b6040516103c19190612106565b60405180910390f35b6103e460048036038101906103df919061207c565b610e80565b6040516103f191906120b6565b60405180910390f35b610402610ea4565b60055f8681526020019081526020015f205f9054906101000a900460ff1615610457576040517fe8a4e57b00000000000000000000000000000000000000000000000000000000815260040160405180910390fd5b6104648585858585610ec6565b61046c611214565b5050505050565b5f60055f8381526020019081526020015f205f9054906101000a900460ff169050919050565b6104a1610ea4565b5f7f000000000000000000000000000000000000000000000000000000000000000090508073ffffffffffffffffffffffffffffffffffffffff1663c83eacc2886040518263ffffffff1660e01b81526004016104fe91906120b6565b602060405180830381865afa158015610519573d5f5f3e3d5ffd5b505050506040513d601f19601f8201168201806040525081019061053d9190612199565b610573576040517fc448310800000000000000000000000000000000000000000000000000000000815260040160405180910390fd5b60055f8981526020019081526020015f205f9054906101000a900460ff16156105c8576040517fe8a4e57b00000000000000000000000000000000000000000000000000000000815260040160405180910390fd5b60035f8773ffffffffffffffffffffffffffffffffffffffff1673ffffffffffffffffffffffffffffffffffffffff1681526020019081526020015f205f9054906101000a900460ff16610648576040517f3dd1b30500000000000000000000000000000000000000000000000000000000815260040160405180910390fd5b5f610656898989898961122e565b905061066f828286869061066a91906123ad565b6112af565b600160055f8b81526020019081526020015f205f6101000a81548160ff0219169083151502179055505f6106a388876114e5565b90506106d087828a73ffffffffffffffffffffffffffffffffffffffff1661158b9092919063ffffffff16565b8673ffffffffffffffffffffffffffffffffffffffff168873ffffffffffffffffffffffffffffffffffffffff168b7dd1d5e5058f4a8ef648b12cb8f43ef9b03b3bf1683e292f34cbceee4ab85c8960405161072c91906120b6565b60405180910390a450505061073f611214565b50505050505050565b5f60055f8381526020019081526020015f205f9054906101000a900460ff169050919050565b6003602052805f5260405f205f915054906101000a900460ff1681565b7f000000000000000000000000000000000000000000000000000000000000000081565b6107b76115de565b5f60025f8373ffffffffffffffffffffffffffffffffffffffff1673ffffffffffffffffffffffffffffffffffffffff1681526020019081526020015f205f6101000a81548160ff0219169083151502179055508073ffffffffffffffffffffffffffffffffffffffff167f4c910b69fe65a61f7531b9c5042b2329ca7179c77290aa7e2eb3afa3c8511fd360405160405180910390a250565b73bbbb00000000000000000000000000000000000081565b6002602052805f5260405f205f915054906101000a900460ff1681565b61088e6115de565b6108975f611665565b565b5f6108a2611695565b90508073ffffffffffffffffffffffffffffffffffffffff166108c3610acf565b73ffffffffffffffffffffffffffffffffffffffff161461091b57806040517f118cdaa700000000000000000000000000000000000000000000000000000000815260040161091291906120de565b60405180910390fd5b61092481611665565b50565b5f5f5f9054906101000a900473ffffffffffffffffffffffffffffffffffffffff16905090565b6005602052805f5260405f205f915054906101000a900460ff1681565b7f000000000000000000000000000000000000000000000000000000000000000081565b7fe22a8d88ee052e76b64bc28669ef2ac0efc9af364f5cd892de2fde5ac336ba3781565b6109bb6115de565b600160025f8373ffffffffffffffffffffffffffffffffffffffff1673ffffffffffffffffffffffffffffffffffffffff1681526020019081526020015f205f6101000a81548160ff021916908315150217905550600160035f8373ffffffffffffffffffffffffffffffffffffffff1673ffffffffffffffffffffffffffffffffffffffff1681526020019081526020015f205f6101000a81548160ff0219169083151502179055508073ffffffffffffffffffffffffffffffffffffffff167f784c8f4dbf0ffedd6e72c76501c545a70f8b203b30a26ce542bf92ba87c248a460405160405180910390a250565b7ff27b61be7b446c751507cb9dcad23ed2f31d18a014e04722d31c39e7696409df81565b5f60015f9054906101000a900473ffffffffffffffffffffffffffffffffffffffff16905090565b610aff6115de565b8060015f6101000a81548173ffffffffffffffffffffffffffffffffffffffff021916908373ffffffffffffffffffffffffffffffffffffffff1602179055508073ffffffffffffffffffffffffffffffffffffffff16610b5e610927565b73ffffffffffffffffffffffffffffffffffffffff167f38d16b8cac22d99fc7c124b9cd0de2d3fa1faef420bfe791d8c362d765e2270060405160405180910390a350565b5f610bac610ea4565b60025f8573ffffffffffffffffffffffffffffffffffffffff1673ffffffffffffffffffffffffffffffffffffffff1681526020019081526020015f205f9054906101000a900460ff16610c2c576040517f3dd1b30500000000000000000000000000000000000000000000000000000000815260040160405180910390fd5b5f8303610c65576040517f1f2a200500000000000000000000000000000000000000000000000000000000815260040160405180910390fd5b5f73ffffffffffffffffffffffffffffffffffffffff168273ffffffffffffffffffffffffffffffffffffffff1603610cca576040517f9c8d2cd200000000000000000000000000000000000000000000000000000000815260040160405180910390fd5b5f60045f3373ffffffffffffffffffffffffffffffffffffffff1673ffffffffffffffffffffffffffffffffffffffff1681526020019081526020015f205f81819054906101000a900467ffffffffffffffff1680929190610d2b906123ee565b91906101000a81548167ffffffffffffffff021916908367ffffffffffffffff16021790555090505f610d5e868661169c565b90505f8167ffffffffffffffff1603610da3576040517f1f2a200500000000000000000000000000000000000000000000000000000000815260040160405180910390fd5b610dd03330878973ffffffffffffffffffffffffffffffffffffffff1661176c909392919063ffffffff16565b46308786843387604051602001610ded97969594939291906124b6565b6040516020818303038152906040528051906020012092503373ffffffffffffffffffffffffffffffffffffffff168673ffffffffffffffffffffffffffffffffffffffff16847fb546702a9c7a51ec8b31f8d5d4d59c7ca63a7ae9379228cced4c0ad499d10a31848887604051610e6793929190612536565b60405180910390a45050610e79611214565b9392505050565b6004602052805f5260405f205f915054906101000a900467ffffffffffffffff1681565b610eac6117c1565b6002610ebe610eb9611802565b61182b565b5f0181905550565b5f5f5f5f5f5f8787810190610edb91906125d3565b9550955095509550955095508a8614610f20576040517f93e68ed000000000000000000000000000000000000000000000000000000000815260040160405180910390fd5b8973ffffffffffffffffffffffffffffffffffffffff168373ffffffffffffffffffffffffffffffffffffffff1614610f85576040517f93e68ed000000000000000000000000000000000000000000000000000000000815260040160405180910390fd5b8867ffffffffffffffff168267ffffffffffffffff1614610fd2576040517f93e68ed000000000000000000000000000000000000000000000000000000000815260040160405180910390fd5b5f7f000000000000000000000000000000000000000000000000000000000000000090508073ffffffffffffffffffffffffffffffffffffffff1663c83eacc2876040518263ffffffff1660e01b815260040161102f91906120b6565b602060405180830381865afa15801561104a573d5f5f3e3d5ffd5b505050506040513d601f19601f8201168201806040525081019061106e9190612199565b6110a4576040517fc448310800000000000000000000000000000000000000000000000000000000815260040160405180910390fd5b60035f8673ffffffffffffffffffffffffffffffffffffffff1673ffffffffffffffffffffffffffffffffffffffff1681526020019081526020015f205f9054906101000a900460ff16611124576040517f3dd1b30500000000000000000000000000000000000000000000000000000000815260040160405180910390fd5b5f6111328d88888f8861122e565b905061113f8282856112af565b600160055f8f81526020019081526020015f205f6101000a81548160ff0219169083151502179055505f61117387866114e5565b90506111a08d828973ffffffffffffffffffffffffffffffffffffffff1661158b9092919063ffffffff16565b8c73ffffffffffffffffffffffffffffffffffffffff168773ffffffffffffffffffffffffffffffffffffffff168f7dd1d5e5058f4a8ef648b12cb8f43ef9b03b3bf1683e292f34cbceee4ab85c886040516111fc91906120b6565b60405180910390a45050505050505050505050505050565b6001611226611221611802565b61182b565b5f0181905550565b5f7fe22a8d88ee052e76b64bc28669ef2ac0efc9af364f5cd892de2fde5ac336ba377f000000000000000000000000000000000000000000000000000000000000000087874688888860405160200161128e989796959493929190612698565b60405160208183030381529060405280519060200120905095945050505050565b5f8373ffffffffffffffffffffffffffffffffffffffff166342cde4e86040518163ffffffff1660e01b8152600401602060405180830381865afa1580156112f9573d5f5f3e3d5ffd5b505050506040513d601f19601f8201168201806040525081019061131d919061273d565b9050808251101561135a576040517f59fa4a9300000000000000000000000000000000000000000000000000000000815260040160405180910390fd5b5f5f90505f5f90505f5f90505b84518110156114a2575f6113958787848151811061138857611387612768565b5b6020026020010151611834565b90508273ffffffffffffffffffffffffffffffffffffffff168173ffffffffffffffffffffffffffffffffffffffff1611611405576040517f08c379a00000000000000000000000000000000000000000000000000000000081526004016113fc906127ef565b60405180910390fd5b8092508773ffffffffffffffffffffffffffffffffffffffff1663facd743b826040518263ffffffff1660e01b815260040161144191906120de565b602060405180830381865afa15801561145c573d5f5f3e3d5ffd5b505050506040513d601f19601f820116820180604052508101906114809190612199565b156114945783806114909061280d565b9450505b508080600101915050611367565b50828210156114dd576040517f59fa4a9300000000000000000000000000000000000000000000000000000000815260040160405180910390fd5b505050505050565b5f5f6114f08461185e565b905060068160ff1611156115345760068161150b9190612860565b600a61151791906129c3565b8367ffffffffffffffff1661152c9190612a0d565b915050611585565b60068160ff1610156115765780600661154d9190612860565b600a61155991906129c3565b8367ffffffffffffffff1661156e9190612a7b565b915050611585565b8267ffffffffffffffff169150505b92915050565b61159883838360016118de565b6115d957826040517f5274afe70000000000000000000000000000000000000000000000000000000081526004016115d091906120de565b60405180910390fd5b505050565b6115e6611695565b73ffffffffffffffffffffffffffffffffffffffff16611604610927565b73ffffffffffffffffffffffffffffffffffffffff161461166357611627611695565b6040517f118cdaa700000000000000000000000000000000000000000000000000000000815260040161165a91906120de565b60405180910390fd5b565b60015f6101000a81549073ffffffffffffffffffffffffffffffffffffffff021916905561169281611940565b50565b5f33905090565b5f5f6116a78461185e565b90505f60068260ff1611156116e1576006826116c39190612860565b600a6116cf91906129c3565b846116da9190612a7b565b905061171d565b60068260ff161015611718578160066116fa9190612860565b600a61170691906129c3565b846117119190612a0d565b905061171c565b8390505b5b67ffffffffffffffff8016811115611761576040517f0625040100000000000000000000000000000000000000000000000000000000815260040160405180910390fd5b809250505092915050565b61177a848484846001611a01565b6117bb57836040517f5274afe70000000000000000000000000000000000000000000000000000000081526004016117b291906120de565b60405180910390fd5b50505050565b6117c9611a72565b15611800576040517f3ee5aeb500000000000000000000000000000000000000000000000000000000815260040160405180910390fd5b565b5f7f9b779b17422d0df92223018b32b4d1fa46e071723d6817e2486d003becc55f005f1b905090565b5f819050919050565b5f5f5f5f6118428686611a8e565b9250925092506118528282611ae3565b82935050505092915050565b5f8173ffffffffffffffffffffffffffffffffffffffff1663313ce5676040518163ffffffff1660e01b8152600401602060405180830381865afa9250505080156118c757506040513d601f19601f820116820180604052508101906118c49190612ad5565b60015b6118d457601290506118d9565b809150505b919050565b5f5f63a9059cbb60e01b9050604051815f525f1960601c86166004528460245260205f60445f5f8b5af1925060015f51148316611932578383151615611926573d5f823e3d81fd5b5f873b113d1516831692505b806040525050949350505050565b5f5f5f9054906101000a900473ffffffffffffffffffffffffffffffffffffffff169050815f5f6101000a81548173ffffffffffffffffffffffffffffffffffffffff021916908373ffffffffffffffffffffffffffffffffffffffff1602179055508173ffffffffffffffffffffffffffffffffffffffff168173ffffffffffffffffffffffffffffffffffffffff167f8be0079c531659141344cd1fd0a4f28419497f9722a3daafe3b4186f6b6457e060405160405180910390a35050565b5f5f6323b872dd60e01b9050604051815f525f1960601c87166004525f1960601c86166024528460445260205f60645f5f8c5af1925060015f51148316611a5f578383151615611a53573d5f823e3d81fd5b5f883b113d1516831692505b806040525f606052505095945050505050565b5f6002611a85611a80611802565b61182b565b5f015414905090565b5f5f5f6041845103611ace575f5f5f602087015192506040870151915060608701515f1a9050611ac088828585611c45565b955095509550505050611adc565b5f600285515f1b9250925092505b9250925092565b5f6003811115611af657611af5612b00565b5b826003811115611b0957611b08612b00565b5b0315611c415760016003811115611b2357611b22612b00565b5b826003811115611b3657611b35612b00565b5b03611b6d576040517ff645eedf00000000000000000000000000000000000000000000000000000000815260040160405180910390fd5b60026003811115611b8157611b80612b00565b5b826003811115611b9457611b93612b00565b5b03611bd857805f1c6040517ffce698f7000000000000000000000000000000000000000000000000000000008152600401611bcf9190612b3c565b60405180910390fd5b600380811115611beb57611bea612b00565b5b826003811115611bfe57611bfd612b00565b5b03611c4057806040517fd78bce0c000000000000000000000000000000000000000000000000000000008152600401611c379190612106565b60405180910390fd5b5b5050565b5f5f5f7f7fffffffffffffffffffffffffffffff5d576e7357a4501ddfe92f46681b20a0845f1c1115611c81575f600385925092509250611d22565b5f6001888888886040515f8152602001604052604051611ca49493929190612b64565b6020604051602081039080840390855afa158015611cc4573d5f5f3e3d5ffd5b5050506020604051035190505f73ffffffffffffffffffffffffffffffffffffffff168173ffffffffffffffffffffffffffffffffffffffff1603611d15575f60015f5f1b93509350935050611d22565b805f5f5f1b935093509350505b9450945094915050565b5f604051905090565b5f5ffd5b5f5ffd5b5f819050919050565b611d4f81611d3d565b8114611d59575f5ffd5b50565b5f81359050611d6a81611d46565b92915050565b5f73ffffffffffffffffffffffffffffffffffffffff82169050919050565b5f611d9982611d70565b9050919050565b611da981611d8f565b8114611db3575f5ffd5b50565b5f81359050611dc481611da0565b92915050565b5f819050919050565b611ddc81611dca565b8114611de6575f5ffd5b50565b5f81359050611df781611dd3565b92915050565b5f5ffd5b5f5ffd5b5f5ffd5b5f5f83601f840112611e1e57611e1d611dfd565b5b8235905067ffffffffffffffff811115611e3b57611e3a611e01565b5b602083019150836001820283011115611e5757611e56611e05565b5b9250929050565b5f5f5f5f5f60808688031215611e7757611e76611d35565b5b5f611e8488828901611d5c565b9550506020611e9588828901611db6565b9450506040611ea688828901611de9565b935050606086013567ffffffffffffffff811115611ec757611ec6611d39565b5b611ed388828901611e09565b92509250509295509295909350565b5f60208284031215611ef757611ef6611d35565b5b5f611f0484828501611d5c565b91505092915050565b5f8115159050919050565b611f2181611f0d565b82525050565b5f602082019050611f3a5f830184611f18565b92915050565b5f67ffffffffffffffff82169050919050565b611f5c81611f40565b8114611f66575f5ffd5b50565b5f81359050611f7781611f53565b92915050565b5f5f83601f840112611f9257611f91611dfd565b5b8235905067ffffffffffffffff811115611faf57611fae611e01565b5b602083019150836020820283011115611fcb57611fca611e05565b5b9250929050565b5f5f5f5f5f5f5f60c0888a031215611fed57611fec611d35565b5b5f611ffa8a828b01611d5c565b975050602061200b8a828b01611f69565b965050604061201c8a828b01611db6565b955050606061202d8a828b01611db6565b945050608061203e8a828b01611f69565b93505060a088013567ffffffffffffffff81111561205f5761205e611d39565b5b61206b8a828b01611f7d565b925092505092959891949750929550565b5f6020828403121561209157612090611d35565b5b5f61209e84828501611db6565b91505092915050565b6120b081611f40565b82525050565b5f6020820190506120c95f8301846120a7565b92915050565b6120d881611d8f565b82525050565b5f6020820190506120f15f8301846120cf565b92915050565b61210081611d3d565b82525050565b5f6020820190506121195f8301846120f7565b92915050565b5f5f5f6060848603121561213657612135611d35565b5b5f61214386828701611db6565b935050602061215486828701611de9565b925050604061216586828701611db6565b9150509250925092565b61217881611f0d565b8114612182575f5ffd5b50565b5f815190506121938161216f565b92915050565b5f602082840312156121ae576121ad611d35565b5b5f6121bb84828501612185565b91505092915050565b5f601f19601f8301169050919050565b7f4e487b71000000000000000000000000000000000000000000000000000000005f52604160045260245ffd5b61220a826121c4565b810181811067ffffffffffffffff82111715612229576122286121d4565b5b80604052505050565b5f61223b611d2c565b90506122478282612201565b919050565b5f67ffffffffffffffff821115612266576122656121d4565b5b602082029050602081019050919050565b5f5ffd5b5f67ffffffffffffffff821115612295576122946121d4565b5b61229e826121c4565b9050602081019050919050565b828183375f83830152505050565b5f6122cb6122c68461227b565b612232565b9050828152602081018484840111156122e7576122e6612277565b5b6122f28482856122ab565b509392505050565b5f82601f83011261230e5761230d611dfd565b5b813561231e8482602086016122b9565b91505092915050565b5f6123396123348461224c565b612232565b9050808382526020820190506020840283018581111561235c5761235b611e05565b5b835b818110156123a357803567ffffffffffffffff81111561238157612380611dfd565b5b80860161238e89826122fa565b8552602085019450505060208101905061235e565b5050509392505050565b5f6123b9368484612327565b905092915050565b7f4e487b71000000000000000000000000000000000000000000000000000000005f52601160045260245ffd5b5f6123f882611f40565b915067ffffffffffffffff8203612412576124116123c1565b5b600182019050919050565b5f819050919050565b61243761243282611dca565b61241d565b82525050565b5f8160601b9050919050565b5f6124538261243d565b9050919050565b5f61246482612449565b9050919050565b61247c61247782611d8f565b61245a565b82525050565b5f8160c01b9050919050565b5f61249882612482565b9050919050565b6124b06124ab82611f40565b61248e565b82525050565b5f6124c1828a612426565b6020820191506124d1828961246b565b6014820191506124e1828861246b565b6014820191506124f1828761246b565b601482019150612501828661249f565b600882019150612511828561246b565b601482019150612521828461249f565b60088201915081905098975050505050505050565b5f6060820190506125495f8301866120a7565b61255660208301856120cf565b61256360408301846120a7565b949350505050565b5f61257582611d70565b9050919050565b6125858161256b565b811461258f575f5ffd5b50565b5f813590506125a08161257c565b92915050565b5f82601f8301126125ba576125b9611dfd565b5b81356125ca848260208601612327565b91505092915050565b5f5f5f5f5f5f60c087890312156125ed576125ec611d35565b5b5f6125fa89828a01611d5c565b965050602061260b89828a01611f69565b955050604061261c89828a01612592565b945050606061262d89828a01612592565b935050608061263e89828a01611f69565b92505060a087013567ffffffffffffffff81111561265f5761265e611d39565b5b61266b89828a016125a6565b9150509295509295509295565b5f819050919050565b61269261268d82611d3d565b612678565b82525050565b5f6126a3828b612681565b6020820191506126b3828a61249f565b6008820191506126c38289612681565b6020820191506126d3828861249f565b6008820191506126e3828761249f565b6008820191506126f3828661246b565b601482019150612703828561246b565b601482019150612713828461249f565b6008820191508190509998505050505050505050565b5f8151905061273781611dd3565b92915050565b5f6020828403121561275257612751611d35565b5b5f61275f84828501612729565b91505092915050565b7f4e487b71000000000000000000000000000000000000000000000000000000005f52603260045260245ffd5b5f82825260208201905092915050565b7f5369676e617475726573206e6f7420736f7274656400000000000000000000005f82015250565b5f6127d9601583612795565b91506127e4826127a5565b602082019050919050565b5f6020820190508181035f830152612806816127cd565b9050919050565b5f61281782611dca565b91507fffffffffffffffffffffffffffffffffffffffffffffffffffffffffffffffff8203612849576128486123c1565b5b600182019050919050565b5f60ff82169050919050565b5f61286a82612854565b915061287583612854565b9250828203905060ff81111561288e5761288d6123c1565b5b92915050565b5f8160011c9050919050565b5f5f8291508390505b60018511156128e9578086048111156128c5576128c46123c1565b5b60018516156128d45780820291505b80810290506128e285612894565b94506128a9565b94509492505050565b5f8261290157600190506129bc565b8161290e575f90506129bc565b8160018114612924576002811461292e5761295d565b60019150506129bc565b60ff8411156129405761293f6123c1565b5b8360020a915084821115612957576129566123c1565b5b506129bc565b5060208310610133831016604e8410600b84101617156129925782820a90508381111561298d5761298c6123c1565b5b6129bc565b61299f84848460016128a0565b925090508184048111156129b6576129b56123c1565b5b81810290505b9392505050565b5f6129cd82611dca565b91506129d883612854565b9250612a057fffffffffffffffffffffffffffffffffffffffffffffffffffffffffffffffff84846128f2565b905092915050565b5f612a1782611dca565b9150612a2283611dca565b9250828202612a3081611dca565b91508282048414831517612a4757612a466123c1565b5b5092915050565b7f4e487b71000000000000000000000000000000000000000000000000000000005f52601260045260245ffd5b5f612a8582611dca565b9150612a9083611dca565b925082612aa057612a9f612a4e565b5b828204905092915050565b612ab481612854565b8114612abe575f5ffd5b50565b5f81519050612acf81612aab565b92915050565b5f60208284031215612aea57612ae9611d35565b5b5f612af784828501612ac1565b91505092915050565b7f4e487b71000000000000000000000000000000000000000000000000000000005f52602160045260245ffd5b612b3681611dca565b82525050565b5f602082019050612b4f5f830184612b2d565b92915050565b612b5e81612854565b82525050565b5f608082019050612b775f8301876120f7565b612b846020830186612b55565b612b9160408301856120f7565b612b9e60608301846120f7565b9594505050505056fea264697066735822122000a132dbf257188afa85764c8d6bf198b69d6459f0d6937907774c91e845448c64736f6c634300081c0033","linkReferences":{}},"methodIdentifiers":{"BURN_ATTESTATION_DOMAIN()":"b7b8fb56","BURN_EVENT_SIGNATURE()":"e2794565","TEMPO_BRIDGE()":"61b42522","acceptOwnership()":"79ba5097","addToken(address)":"d48bfca7","deposit(address,uint256,address)":"f45346dc","depositNonces(address)":"f961ade3","everSupportedTokens(address)":"49b01d25","isBurnSpent(bytes32)":"0e6e5580","isUnlocked(bytes32)":"3dadc1e1","lightClient()":"b5700e68","owner()":"8da5cb5b","pendingOwner()":"e30c3978","removeToken(address)":"5fa7b584","renounceOwnership()":"715018a6","spentBurnIds(bytes32)":"93363dbf","supportedTokens(address)":"68c4ac26","tempoChainId()":"548bed75","transferOwnership(address)":"f2fde38b","unlock(bytes32,uint64,address,address,uint64,bytes[])":"22cc9b2c","unlockWithProof(bytes32,address,uint256,bytes)":"00398ad2"},"id":34}