{"abi":[{"type":"constructor","inputs":[{"name":"_lightClient","type":"address","internalType":"address"},{"name":"_tempoChainId","type":"uint64","internalType":"uint64"}],"stateMutability":"nonpayable"},{"type":"function","name":"BURN_EVENT_SIGNATURE","inputs":[],"outputs":[{"name":"","type":"bytes32","internalType":"bytes32"}],"stateMutability":"view"},{"type":"function","name":"TEMPO_BRIDGE","inputs":[],"outputs":[{"name":"","type":"address","internalType":"address"}],"stateMutability":"view"},{"type":"function","name":"acceptOwnership","inputs":[],"outputs":[],"stateMutability":"nonpayable"},{"type":"function","name":"addToken","inputs":[{"name":"token","type":"address","internalType":"address"}],"outputs":[],"stateMutability":"nonpayable"},{"type":"function","name":"deposit","inputs":[{"name":"token","type":"address","internalType":"address"},{"name":"amount","type":"uint256","internalType":"uint256"},{"name":"tempoRecipient","type":"address","internalType":"address"}],"outputs":[{"name":"depositId","type":"bytes32","internalType":"bytes32"}],"stateMutability":"nonpayable"},{"type":"function","name":"depositNonces","inputs":[{"name":"","type":"address","internalType":"address"}],"outputs":[{"name":"","type":"uint64","internalType":"uint64"}],"stateMutability":"view"},{"type":"function","name":"everSupportedTokens","inputs":[{"name":"","type":"address","internalType":"address"}],"outputs":[{"name":"","type":"bool","internalType":"bool"}],"stateMutability":"view"},{"type":"function","name":"isBurnSpent","inputs":[{"name":"burnId","type":"bytes32","internalType":"bytes32"}],"outputs":[{"name":"","type":"bool","internalType":"bool"}],"stateMutability":"view"},{"type":"function","name":"isUnlocked","inputs":[{"name":"burnId","type":"bytes32","internalType":"bytes32"}],"outputs":[{"name":"","type":"bool","internalType":"bool"}],"stateMutability":"view"},{"type":"function","name":"lightClient","inputs":[],"outputs":[{"name":"","type":"address","internalType":"address"}],"stateMutability":"view"},{"type":"function","name":"owner","inputs":[],"outputs":[{"name":"","type":"address","internalType":"address"}],"stateMutability":"view"},{"type":"function","name":"pendingOwner","inputs":[],"outputs":[{"name":"","type":"address","internalType":"address"}],"stateMutability":"view"},{"type":"function","name":"removeToken","inputs":[{"name":"token","type":"address","internalType":"address"}],"outputs":[],"stateMutability":"nonpayable"},{"type":"function","name":"renounceOwnership","inputs":[],"outputs":[],"stateMutability":"nonpayable"},{"type":"function","name":"spentBurnIds","inputs":[{"name":"","type":"bytes32","internalType":"bytes32"}],"outputs":[{"name":"","type":"bool","internalType":"bool"}],"stateMutability":"view"},{"type":"function","name":"supportedTokens","inputs":[{"name":"","type":"address","internalType":"address"}],"outputs":[{"name":"","type":"bool","internalType":"bool"}],"stateMutability":"view"},{"type":"function","name":"tempoChainId","inputs":[],"outputs":[{"name":"","type":"uint64","internalType":"uint64"}],"stateMutability":"view"},{"type":"function","name":"transferOwnership","inputs":[{"name":"newOwner","type":"address","internalType":"address"}],"outputs":[],"stateMutability":"nonpayable"},{"type":"function","name":"unlock","inputs":[{"name":"tempoHeight","type":"uint64","internalType":"uint64"},{"name":"receiptRlp","type":"bytes","internalType":"bytes"},{"name":"receiptProof","type":"bytes[]","internalType":"bytes[]"},{"name":"logIndex","type":"uint256","internalType":"uint256"}],"outputs":[],"stateMutability":"nonpayable"},{"type":"function","name":"unlockWithProof","inputs":[{"name":"burnId","type":"bytes32","internalType":"bytes32"},{"name":"recipient","type":"address","internalType":"address"},{"name":"amount","type":"uint256","internalType":"uint256"},{"name":"proof","type":"bytes","internalType":"bytes"}],"outputs":[],"stateMutability":"nonpayable"},{"type":"event","name":"Deposited","inputs":[{"name":"depositId","type":"bytes32","indexed":true,"internalType":"bytes32"},{"name":"token","type":"address","indexed":true,"internalType":"address"},{"name":"depositor","type":"address","indexed":true,"internalType":"address"},{"name":"amount","type":"uint64","indexed":false,"internalType":"uint64"},{"name":"tempoRecipient","type":"address","indexed":false,"internalType":"address"},{"name":"nonce","type":"uint64","indexed":false,"internalType":"uint64"}],"anonymous":false},{"type":"event","name":"OwnershipTransferStarted","inputs":[{"name":"previousOwner","type":"address","indexed":true,"internalType":"address"},{"name":"newOwner","type":"address","indexed":true,"internalType":"address"}],"anonymous":false},{"type":"event","name":"OwnershipTransferred","inputs":[{"name":"previousOwner","type":"address","indexed":true,"internalType":"address"},{"name":"newOwner","type":"address","indexed":true,"internalType":"address"}],"anonymous":false},{"type":"event","name":"TokenAdded","inputs":[{"name":"token","type":"address","indexed":true,"internalType":"address"}],"anonymous":false},{"type":"event","name":"TokenRemoved","inputs":[{"name":"token","type":"address","indexed":true,"internalType":"address"}],"anonymous":false},{"type":"event","name":"Unlocked","inputs":[{"name":"burnId","type":"bytes32","indexed":true,"internalType":"bytes32"},{"name":"token","type":"address","indexed":true,"internalType":"address"},{"name":"recipient","type":"address","indexed":true,"internalType":"address"},{"name":"amount","type":"uint64","indexed":false,"internalType":"uint64"}],"anonymous":false},{"type":"error","name":"AmountTooLarge","inputs":[]},{"type":"error","name":"BurnAlreadySpent","inputs":[]},{"type":"error","name":"HeaderNotFinalized","inputs":[]},{"type":"error","name":"InvalidBurnEvent","inputs":[]},{"type":"error","name":"InvalidProofFormat","inputs":[]},{"type":"error","name":"InvalidReceiptProof","inputs":[]},{"type":"error","name":"InvalidRecipient","inputs":[]},{"type":"error","name":"OwnableInvalidOwner","inputs":[{"name":"owner","type":"address","internalType":"address"}]},{"type":"error","name":"OwnableUnauthorizedAccount","inputs":[{"name":"account","type":"address","internalType":"address"}]},{"type":"error","name":"RLPInvalidEncoding","inputs":[]},{"type":"error","name":"ReentrancyGuardReentrantCall","inputs":[]},{"type":"error","name":"SafeERC20FailedOperation","inputs":[{"name":"token","type":"address","internalType":"address"}]},{"type":"error","name":"TokenNotSupported","inputs":[]},{"type":"error","name":"ZeroAmount","inputs":[]}],"bytecode":{"object":"0x60c060405234801561000f575f5ffd5b5060405161444e38038061444e833981810160405281019061003191906102f1565b335f73ffffffffffffffffffffffffffffffffffffffff168173ffffffffffffffffffffffffffffffffffffffff16036100a2575f6040517f1e4fbdf7000000000000000000000000000000000000000000000000000000008152600401610099919061033e565b60405180910390fd5b6100b18161012d60201b60201c565b5060016100d06100c561016360201b60201c565b61018c60201b60201c565b5f01819055508173ffffffffffffffffffffffffffffffffffffffff1660808173ffffffffffffffffffffffffffffffffffffffff16815250508067ffffffffffffffff1660a08167ffffffffffffffff16815250505050610357565b60015f6101000a81549073ffffffffffffffffffffffffffffffffffffffff02191690556101608161019560201b60201c565b50565b5f7f9b779b17422d0df92223018b32b4d1fa46e071723d6817e2486d003becc55f005f1b905090565b5f819050919050565b5f5f5f9054906101000a900473ffffffffffffffffffffffffffffffffffffffff169050815f5f6101000a81548173ffffffffffffffffffffffffffffffffffffffff021916908373ffffffffffffffffffffffffffffffffffffffff1602179055508173ffffffffffffffffffffffffffffffffffffffff168173ffffffffffffffffffffffffffffffffffffffff167f8be0079c531659141344cd1fd0a4f28419497f9722a3daafe3b4186f6b6457e060405160405180910390a35050565b5f5ffd5b5f73ffffffffffffffffffffffffffffffffffffffff82169050919050565b5f6102838261025a565b9050919050565b61029381610279565b811461029d575f5ffd5b50565b5f815190506102ae8161028a565b92915050565b5f67ffffffffffffffff82169050919050565b6102d0816102b4565b81146102da575f5ffd5b50565b5f815190506102eb816102c7565b92915050565b5f5f6040838503121561030757610306610256565b5b5f610314858286016102a0565b9250506020610325858286016102dd565b9150509250929050565b61033881610279565b82525050565b5f6020820190506103515f83018461032f565b92915050565b60805160a0516140c86103865f395f6104d601525f81816106b601528181610c14015261118201526140c85ff3fe608060405234801561000f575f5ffd5b5060043610610129575f3560e01c80638da5cb5b116100ab578063e27945651161006f578063e279456514610319578063e30c397814610337578063f2fde38b14610355578063f45346dc14610371578063f961ade3146103a157610129565b80638da5cb5b1461027557806393363dbf14610293578063b5700e68146102c3578063baf9362e146102e1578063d48bfca7146102fd57610129565b80635fa7b584116100f25780635fa7b584146101f757806361b425221461021357806368c4ac2614610231578063715018a61461026157806379ba50971461026b57610129565b8062398ad21461012d5780630e6e5580146101495780633dadc1e11461017957806349b01d25146101a9578063548bed75146101d9575b5f5ffd5b6101476004803603810190610142919061305b565b6103d1565b005b610163600480360381019061015e91906130df565b61046b565b6040516101709190613124565b60405180910390f35b610193600480360381019061018e91906130df565b610491565b6040516101a09190613124565b60405180910390f35b6101c360048036038101906101be919061313d565b6104b7565b6040516101d09190613124565b60405180910390f35b6101e16104d4565b6040516101ee919061318a565b60405180910390f35b610211600480360381019061020c919061313d565b6104f8565b005b61021b61059a565b60405161022891906131b2565b60405180910390f35b61024b6004803603810190610246919061313d565b6105b2565b6040516102589190613124565b60405180910390f35b6102696105cf565b005b6102736105e2565b005b61027d610670565b60405161028a91906131b2565b60405180910390f35b6102ad60048036038101906102a891906130df565b610697565b6040516102ba9190613124565b60405180910390f35b6102cb6106b4565b6040516102d891906131b2565b60405180910390f35b6102fb60048036038101906102f6919061324a565b6106d8565b005b6103176004803603810190610312919061313d565b6106fe565b005b6103216107f6565b60405161032e91906132fc565b60405180910390f35b61033f61081a565b60405161034c91906131b2565b60405180910390f35b61036f600480360381019061036a919061313d565b610842565b005b61038b60048036038101906103869190613315565b6108ee565b60405161039891906132fc565b60405180910390f35b6103bb60048036038101906103b6919061313d565b610bcb565b6040516103c8919061318a565b60405180910390f35b6103d9610bef565b60055f8681526020019081526020015f205f9054906101000a900460ff161561042e576040517fe8a4e57b00000000000000000000000000000000000000000000000000000000815260040160405180910390fd5b5f5f5f5f8585810190610441919061357b565b9350935093509350610458848484848d8d8d610c11565b505050506104646110a7565b5050505050565b5f60055f8381526020019081526020015f205f9054906101000a900460ff169050919050565b5f60055f8381526020019081526020015f205f9054906101000a900460ff169050919050565b6003602052805f5260405f205f915054906101000a900460ff1681565b7f000000000000000000000000000000000000000000000000000000000000000081565b6105006110c1565b5f60025f8373ffffffffffffffffffffffffffffffffffffffff1673ffffffffffffffffffffffffffffffffffffffff1681526020019081526020015f205f6101000a81548160ff0219169083151502179055508073ffffffffffffffffffffffffffffffffffffffff167f4c910b69fe65a61f7531b9c5042b2329ca7179c77290aa7e2eb3afa3c8511fd360405160405180910390a250565b73bbbb00000000000000000000000000000000000081565b6002602052805f5260405f205f915054906101000a900460ff1681565b6105d76110c1565b6105e05f611148565b565b5f6105eb611178565b90508073ffffffffffffffffffffffffffffffffffffffff1661060c61081a565b73ffffffffffffffffffffffffffffffffffffffff161461066457806040517f118cdaa700000000000000000000000000000000000000000000000000000000815260040161065b91906131b2565b60405180910390fd5b61066d81611148565b50565b5f5f5f9054906101000a900473ffffffffffffffffffffffffffffffffffffffff16905090565b6005602052805f5260405f205f915054906101000a900460ff1681565b7f000000000000000000000000000000000000000000000000000000000000000081565b6106e0610bef565b6106ee86868686868661117f565b6106f66110a7565b505050505050565b6107066110c1565b600160025f8373ffffffffffffffffffffffffffffffffffffffff1673ffffffffffffffffffffffffffffffffffffffff1681526020019081526020015f205f6101000a81548160ff021916908315150217905550600160035f8373ffffffffffffffffffffffffffffffffffffffff1673ffffffffffffffffffffffffffffffffffffffff1681526020019081526020015f205f6101000a81548160ff0219169083151502179055508073ffffffffffffffffffffffffffffffffffffffff167f784c8f4dbf0ffedd6e72c76501c545a70f8b203b30a26ce542bf92ba87c248a460405160405180910390a250565b7ff27b61be7b446c751507cb9dcad23ed2f31d18a014e04722d31c39e7696409df81565b5f60015f9054906101000a900473ffffffffffffffffffffffffffffffffffffffff16905090565b61084a6110c1565b8060015f6101000a81548173ffffffffffffffffffffffffffffffffffffffff021916908373ffffffffffffffffffffffffffffffffffffffff1602179055508073ffffffffffffffffffffffffffffffffffffffff166108a9610670565b73ffffffffffffffffffffffffffffffffffffffff167f38d16b8cac22d99fc7c124b9cd0de2d3fa1faef420bfe791d8c362d765e2270060405160405180910390a350565b5f6108f7610bef565b60025f8573ffffffffffffffffffffffffffffffffffffffff1673ffffffffffffffffffffffffffffffffffffffff1681526020019081526020015f205f9054906101000a900460ff16610977576040517f3dd1b30500000000000000000000000000000000000000000000000000000000815260040160405180910390fd5b5f83036109b0576040517f1f2a200500000000000000000000000000000000000000000000000000000000815260040160405180910390fd5b5f73ffffffffffffffffffffffffffffffffffffffff168273ffffffffffffffffffffffffffffffffffffffff1603610a15576040517f9c8d2cd200000000000000000000000000000000000000000000000000000000815260040160405180910390fd5b5f60045f3373ffffffffffffffffffffffffffffffffffffffff1673ffffffffffffffffffffffffffffffffffffffff1681526020019081526020015f205f81819054906101000a900467ffffffffffffffff1680929190610a7690613644565b91906101000a81548167ffffffffffffffff021916908367ffffffffffffffff16021790555090505f610aa9868661153b565b90505f8167ffffffffffffffff1603610aee576040517f1f2a200500000000000000000000000000000000000000000000000000000000815260040160405180910390fd5b610b1b3330878973ffffffffffffffffffffffffffffffffffffffff1661160b909392919063ffffffff16565b46308786843387604051602001610b38979695949392919061370c565b6040516020818303038152906040528051906020012092503373ffffffffffffffffffffffffffffffffffffffff168673ffffffffffffffffffffffffffffffffffffffff16847fb546702a9c7a51ec8b31f8d5d4d59c7ca63a7ae9379228cced4c0ad499d10a31848887604051610bb29392919061378c565b60405180910390a45050610bc46110a7565b9392505050565b6004602052805f5260405f205f915054906101000a900467ffffffffffffffff1681565b610bf7611660565b6002610c09610c046116a1565b6116ca565b5f0181905550565b5f7f000000000000000000000000000000000000000000000000000000000000000090508073ffffffffffffffffffffffffffffffffffffffff1663c83eacc2896040518263ffffffff1660e01b8152600401610c6e919061318a565b602060405180830381865afa158015610c89573d5f5f3e3d5ffd5b505050506040513d601f19601f82011682018060405250810190610cad91906137eb565b610ce3576040517fc448310800000000000000000000000000000000000000000000000000000000815260040160405180910390fd5b5f8173ffffffffffffffffffffffffffffffffffffffff16630c6038ed8a6040518263ffffffff1660e01b8152600401610d1d919061318a565b602060405180830381865afa158015610d38573d5f5f3e3d5ffd5b505050506040513d601f19601f82011682018060405250810190610d5c919061382a565b90505f88805190602001209050610d7481838a6116d3565b610daa576040517f7b374dd100000000000000000000000000000000000000000000000000000000815260040160405180910390fd5b5f5f5f5f5f610db98e8d6117b0565b945094509450945094508a8514610dfc576040517f93e68ed000000000000000000000000000000000000000000000000000000000815260040160405180910390fd5b8973ffffffffffffffffffffffffffffffffffffffff168273ffffffffffffffffffffffffffffffffffffffff1614610e61576040517f93e68ed000000000000000000000000000000000000000000000000000000000815260040160405180910390fd5b8867ffffffffffffffff168167ffffffffffffffff1614610eae576040517f93e68ed000000000000000000000000000000000000000000000000000000000815260040160405180910390fd5b4667ffffffffffffffff168467ffffffffffffffff1614610efb576040517f93e68ed000000000000000000000000000000000000000000000000000000000815260040160405180910390fd5b60035f8473ffffffffffffffffffffffffffffffffffffffff1673ffffffffffffffffffffffffffffffffffffffff1681526020019081526020015f205f9054906101000a900460ff16610f7b576040517f3dd1b30500000000000000000000000000000000000000000000000000000000815260040160405180910390fd5b60055f8681526020019081526020015f205f9054906101000a900460ff1615610fd0576040517fe8a4e57b00000000000000000000000000000000000000000000000000000000815260040160405180910390fd5b600160055f8781526020019081526020015f205f6101000a81548160ff0219169083151502179055505f6110048483611c7e565b905061103183828673ffffffffffffffffffffffffffffffffffffffff16611d249092919063ffffffff16565b8273ffffffffffffffffffffffffffffffffffffffff168473ffffffffffffffffffffffffffffffffffffffff16877dd1d5e5058f4a8ef648b12cb8f43ef9b03b3bf1683e292f34cbceee4ab85c8560405161108d919061318a565b60405180910390a450505050505050505050505050505050565b60016110b96110b46116a1565b6116ca565b5f0181905550565b6110c9611178565b73ffffffffffffffffffffffffffffffffffffffff166110e7610670565b73ffffffffffffffffffffffffffffffffffffffff16146111465761110a611178565b6040517f118cdaa700000000000000000000000000000000000000000000000000000000815260040161113d91906131b2565b60405180910390fd5b565b60015f6101000a81549073ffffffffffffffffffffffffffffffffffffffff021916905561117581611d77565b50565b5f33905090565b5f7f000000000000000000000000000000000000000000000000000000000000000090508073ffffffffffffffffffffffffffffffffffffffff1663c83eacc2886040518263ffffffff1660e01b81526004016111dc919061318a565b602060405180830381865afa1580156111f7573d5f5f3e3d5ffd5b505050506040513d601f19601f8201168201806040525081019061121b91906137eb565b611251576040517fc448310800000000000000000000000000000000000000000000000000000000815260040160405180910390fd5b5f8173ffffffffffffffffffffffffffffffffffffffff16630c6038ed896040518263ffffffff1660e01b815260040161128b919061318a565b602060405180830381865afa1580156112a6573d5f5f3e3d5ffd5b505050506040513d601f19601f820116820180604052508101906112ca919061382a565b90505f87876040516112dd929190613883565b604051809103902090506112f381838888611e38565b611329576040517f7b374dd100000000000000000000000000000000000000000000000000000000815260040160405180910390fd5b5f5f5f5f5f6113398d8d8b611f7c565b945094509450945094504667ffffffffffffffff168467ffffffffffffffff1614611390576040517f93e68ed000000000000000000000000000000000000000000000000000000000815260040160405180910390fd5b60035f8473ffffffffffffffffffffffffffffffffffffffff1673ffffffffffffffffffffffffffffffffffffffff1681526020019081526020015f205f9054906101000a900460ff16611410576040517f3dd1b30500000000000000000000000000000000000000000000000000000000815260040160405180910390fd5b60055f8681526020019081526020015f205f9054906101000a900460ff1615611465576040517fe8a4e57b00000000000000000000000000000000000000000000000000000000815260040160405180910390fd5b600160055f8781526020019081526020015f205f6101000a81548160ff0219169083151502179055505f6114998483611c7e565b90506114c683828673ffffffffffffffffffffffffffffffffffffffff16611d249092919063ffffffff16565b8273ffffffffffffffffffffffffffffffffffffffff168473ffffffffffffffffffffffffffffffffffffffff16877dd1d5e5058f4a8ef648b12cb8f43ef9b03b3bf1683e292f34cbceee4ab85c85604051611522919061318a565b60405180910390a4505050505050505050505050505050565b5f5f611546846123ff565b90505f60068260ff1611156115805760068261156291906138a7565b600a61156e9190613a0a565b846115799190613a81565b90506115bc565b60068260ff1610156115b75781600661159991906138a7565b600a6115a59190613a0a565b846115b09190613ab1565b90506115bb565b8390505b5b67ffffffffffffffff8016811115611600576040517f0625040100000000000000000000000000000000000000000000000000000000815260040160405180910390fd5b809250505092915050565b61161984848484600161247f565b61165a57836040517f5274afe700000000000000000000000000000000000000000000000000000000815260040161165191906131b2565b60405180910390fd5b50505050565b6116686124f0565b1561169f576040517f3ee5aeb500000000000000000000000000000000000000000000000000000000815260040160405180910390fd5b565b5f7f9b779b17422d0df92223018b32b4d1fa46e071723d6817e2486d003becc55f005f1b905090565b5f819050919050565b5f5f8490505f5f90505b83518110156117a1575f8482815181106116fa576116f9613af2565b5b602002602001015190506021815114611718575f93505050506117a9565b5f5f6020830151915060418301515f1a905060018160ff1603611765578482604051602001611748929190613b3f565b604051602081830303815290604052805190602001209450611791565b8185604051602001611778929190613b3f565b6040516020818303038152906040528051906020012094505b50505080806001019150506116dd565b508381149150505b9392505050565b5f5f5f5f5f60605f88511180156117ea57506080885f815181106117d7576117d6613af2565b5b602001015160f81c60f81b60f81c60ff16105b156118db575f600189516117fe9190613b6a565b90508067ffffffffffffffff81111561181a57611819613379565b5b6040519080825280601f01601f19166020018201604052801561184c5781602001600182028036833780820191505090505b5091505f5f90505b818110156118d4578960018261186a9190613b9d565b8151811061187b5761187a613af2565b5b602001015160f81c60f81b83828151811061189957611898613af2565b5b60200101907effffffffffffffffffffffffffffffffffffffffffffffffffffffffffffff191690815f1a9053508080600101915050611854565b50506118df565b8790505b5f6118e98261250c565b9050600481511015611930576040517f08c379a000000000000000000000000000000000000000000000000000000000815260040161192790613c2a565b60405180910390fd5b5f6119558260038151811061194857611947613af2565b5b6020026020010151612526565b90508051891061199a576040517f08c379a000000000000000000000000000000000000000000000000000000000815260040161199190613c92565b60405180910390fd5b5f6119be828b815181106119b1576119b0613af2565b5b6020026020010151612526565b90506003815114611a04576040517f08c379a00000000000000000000000000000000000000000000000000000000081526004016119fb90613cfa565b60405180910390fd5b5f611a28825f81518110611a1b57611a1a613af2565b5b6020026020010151612663565b905073bbbb00000000000000000000000000000000000073ffffffffffffffffffffffffffffffffffffffff168173ffffffffffffffffffffffffffffffffffffffff1614611aac576040517f08c379a0000000000000000000000000000000000000000000000000000000008152600401611aa390613d62565b60405180910390fd5b5f611ad183600181518110611ac457611ac3613af2565b5b6020026020010151612526565b90506003815114611b17576040517f08c379a0000000000000000000000000000000000000000000000000000000008152600401611b0e90613dca565b60405180910390fd5b5f611b3b825f81518110611b2e57611b2d613af2565b5b60200260200101516126c6565b90507ff27b61be7b446c751507cb9dcad23ed2f31d18a014e04722d31c39e7696409df8114611b9f576040517f08c379a0000000000000000000000000000000000000000000000000000000008152600401611b9690613e32565b60405180910390fd5b611bc382600181518110611bb657611bb5613af2565b5b60200260200101516126c6565b9b50611be982600281518110611bdc57611bdb613af2565b5b60200260200101516126d9565b9a505f611c1085600281518110611c0357611c02613af2565b5b60200260200101516127da565b905060a081511015611c57576040517f08c379a0000000000000000000000000000000000000000000000000000000008152600401611c4e90613e9a565b60405180910390fd5b60208101519a50604081015199506060810151985050505050505050509295509295909350565b5f5f611c89846123ff565b905060068160ff161115611ccd57600681611ca491906138a7565b600a611cb09190613a0a565b8367ffffffffffffffff16611cc59190613ab1565b915050611d1e565b60068160ff161015611d0f57806006611ce691906138a7565b600a611cf29190613a0a565b8367ffffffffffffffff16611d079190613a81565b915050611d1e565b8267ffffffffffffffff169150505b92915050565b611d318383836001612872565b611d7257826040517f5274afe7000000000000000000000000000000000000000000000000000000008152600401611d6991906131b2565b60405180910390fd5b505050565b5f5f5f9054906101000a900473ffffffffffffffffffffffffffffffffffffffff169050815f5f6101000a81548173ffffffffffffffffffffffffffffffffffffffff021916908373ffffffffffffffffffffffffffffffffffffffff1602179055508173ffffffffffffffffffffffffffffffffffffffff168173ffffffffffffffffffffffffffffffffffffffff167f8be0079c531659141344cd1fd0a4f28419497f9722a3daafe3b4186f6b6457e060405160405180910390a35050565b5f5f8590505f5f90505b84849050811015611f6c57365f868684818110611e6257611e61613af2565b5b9050602002810190611e749190613ec4565b9150915060218282905014611e8f575f945050505050611f74565b5f82825f90602092611ea393929190613f2e565b90611eae9190613f7e565b90505f600160f81b84846020818110611eca57611ec9613af2565b5b9050013560f81c60f81b7effffffffffffffffffffffffffffffffffffffffffffffffffffffffffffff19161490508015611f2f578582604051602001611f12929190613b3f565b604051602081830303815290604052805190602001209550611f5b565b8186604051602001611f42929190613b3f565b6040516020818303038152906040528051906020012095505b505050508080600101915050611e42565b508481149150505b949350505050565b5f5f5f5f5f60605f89899050118015611fb75750608089895f818110611fa557611fa4613af2565b5b9050013560f81c60f81b60f81c60ff16105b156120185788886001908092611fcf93929190613f2e565b8080601f0160208091040260200160405190810160405280939291908181526020018383808284375f81840152601f19601f82011690508083019250505050505050905061205f565b88888080601f0160208091040260200160405190810160405280939291908181526020018383808284375f81840152601f19601f8201169050808301925050505050505090505b5f6120698261250c565b90506004815110156120b0576040517f08c379a00000000000000000000000000000000000000000000000000000000081526004016120a790613c2a565b60405180910390fd5b5f6120d5826003815181106120c8576120c7613af2565b5b6020026020010151612526565b90508051891061211a576040517f08c379a000000000000000000000000000000000000000000000000000000000815260040161211190613c92565b60405180910390fd5b5f61213e828b8151811061213157612130613af2565b5b6020026020010151612526565b90506003815114612184576040517f08c379a000000000000000000000000000000000000000000000000000000000815260040161217b90613cfa565b60405180910390fd5b5f6121a8825f8151811061219b5761219a613af2565b5b6020026020010151612663565b905073bbbb00000000000000000000000000000000000073ffffffffffffffffffffffffffffffffffffffff168173ffffffffffffffffffffffffffffffffffffffff161461222c576040517f08c379a000000000000000000000000000000000000000000000000000000000815260040161222390613d62565b60405180910390fd5b5f6122518360018151811061224457612243613af2565b5b6020026020010151612526565b90506003815114612297576040517f08c379a000000000000000000000000000000000000000000000000000000000815260040161228e90613dca565b60405180910390fd5b5f6122bb825f815181106122ae576122ad613af2565b5b60200260200101516126c6565b90507ff27b61be7b446c751507cb9dcad23ed2f31d18a014e04722d31c39e7696409df811461231f576040517f08c379a000000000000000000000000000000000000000000000000000000000815260040161231690613e32565b60405180910390fd5b6123438260018151811061233657612335613af2565b5b60200260200101516126c6565b9b506123698260028151811061235c5761235b613af2565b5b60200260200101516126d9565b9a505f6123908560028151811061238357612382613af2565b5b60200260200101516127da565b905060a0815110156123d7576040517f08c379a00000000000000000000000000000000000000000000000000000000081526004016123ce90613e9a565b60405180910390fd5b60208101519a5060408101519950606081015198505050505050505050939792965093509350565b5f8173ffffffffffffffffffffffffffffffffffffffff1663313ce5676040518163ffffffff1660e01b8152600401602060405180830381865afa92505050801561246857506040513d601f19601f820116820180604052508101906124659190614006565b60015b612475576012905061247a565b809150505b919050565b5f5f6323b872dd60e01b9050604051815f525f1960601c87166004525f1960601c86166024528460445260205f60645f5f8c5af1925060015f511483166124dd5783831516156124d1573d5f823e3d81fd5b5f883b113d1516831692505b806040525f606052505095945050505050565b5f60026125036124fe6116a1565b6116ca565b5f015414905090565b606061251f61251a836128d4565b612526565b9050919050565b60605f612532836128e6565b90505f5f5f612540866128f2565b92509250925060018081111561255957612558614031565b5b81600181111561256c5761256b614031565b5b148015612583575081836125809190613b9d565b84145b6125b9576040517ff3dd700400000000000000000000000000000000000000000000000000000000815260040160405180910390fd5b5f60405195506020860190505f8490505b8581101561264a575f5f6125ef6125ea848c612d7390919063ffffffff16565b6128f2565b50915091505f6126158484846126059190613b9d565b8d612dc59092919063ffffffff16565b905081836126239190613b9d565b8461262e9190613b9d565b93508085525050506020826126439190613b9d565b91506125ca565b5060208087018203048652806040525050505050919050565b5f5f61266e836128e6565b9050600181148061267f5750601581145b6126b5576040517ff3dd700400000000000000000000000000000000000000000000000000000000815260040160405180910390fd5b6126be836126d9565b915050919050565b5f6126d0826126d9565b5f1b9050919050565b5f5f6126e4836128e6565b90506021811115612721576040517ff3dd700400000000000000000000000000000000000000000000000000000000815260040160405180910390fd5b5f5f5f61272d866128f2565b9250925092505f600181111561274657612745614031565b5b81600181111561275957612758614031565b5b14612790576040517ff3dd700400000000000000000000000000000000000000000000000000000000815260040160405180910390fd5b5f82146127cd578160086127a49190613ab1565b6101006127b19190613b6a565b6127c48488612e1090919063ffffffff16565b5f1c901c6127cf565b5f5b945050505050919050565b60605f5f5f6127e8856128f2565b9250925092505f600181111561280157612800614031565b5b81600181111561281457612813614031565b5b1461284b576040517ff3dd700400000000000000000000000000000000000000000000000000000000815260040160405180910390fd5b612868612863848488612dc59092919063ffffffff16565b612e61565b9350505050919050565b5f5f63a9059cbb60e01b9050604051815f525f1960601c86166004528460245260205f60445f5f8b5af1925060015f511483166128c65783831516156128ba573d5f823e3d81fd5b5f873b113d1516831692505b806040525050949350505050565b5f60208201825160801b179050919050565b5f8160801c9050919050565b5f5f5f5f6128ff856128e6565b90505f810361293a576040517ff3dd700400000000000000000000000000000000000000000000000000000000815260040160405180910390fd5b5f61294e5f87612e1090919063ffffffff16565b60f81c905060c060ff168160ff161015612bae57608060ff168160ff161015612982575f60015f9450945094505050612d6c565b60376080612990919061405e565b60ff168160ff1611612a6d575f6080826129aa91906138a7565b60ff1690508083118015612a255750600181141580612a245750608060f81b7effffffffffffffffffffffffffffffffffffffffffffffffffffffffffffff19166129ff600189612e1090919063ffffffff16565b7effffffffffffffffffffffffffffffffffffffffffffffffffffffffffffff191610155b5b612a5b576040517ff3dd700400000000000000000000000000000000000000000000000000000000815260040160405180910390fd5b6001815f955095509550505050612d6c565b5f6037608083612a7d91906138a7565b612a8791906138a7565b60ff1690508083118015612ad257505f60f81b612aad5f89612e1090919063ffffffff16565b7effffffffffffffffffffffffffffffffffffffffffffffffffffffffffffff191614155b612b08576040517ff3dd700400000000000000000000000000000000000000000000000000000000815260040160405180910390fd5b5f816008612b169190613ab1565b610100612b239190613b6a565b612b3760018a612e1090919063ffffffff16565b5f1c901c9050603760ff1681118015612b5a57508082612b579190613b9d565b84115b612b90576040517ff3dd700400000000000000000000000000000000000000000000000000000000815260040160405180910390fd5b600182612b9d9190613b9d565b815f96509650965050505050612d6c565b603760c0612bbc919061405e565b60ff168160ff1611612c2f575f60c082612bd691906138a7565b60ff16905080612be5886128e6565b11612c1c576040517ff3dd700400000000000000000000000000000000000000000000000000000000815260040160405180910390fd5b6001816001955095509550505050612d6c565b5f603760c083612c3f91906138a7565b612c4991906138a7565b60ff169050808311612c87576040517ff3dd700400000000000000000000000000000000000000000000000000000000815260040160405180910390fd5b5f60f81b612c9e5f89612e1090919063ffffffff16565b7effffffffffffffffffffffffffffffffffffffffffffffffffffffffffffff191603612cc9575f5ffd5b5f816008612cd79190613ab1565b610100612ce49190613b6a565b612cf860018a612e1090919063ffffffff16565b5f1c901c9050603760ff1681118015612d1b57508082612d189190613b9d565b84115b612d51576040517ff3dd700400000000000000000000000000000000000000000000000000000000815260040160405180910390fd5b600182612d5e9190613b9d565b816001965096509650505050505b9193909250565b5f612d7d836128e6565b821115612d8f57612d8e6032612e9a565b5b612dbd82612d9c856128e6565b612da69190613b6a565b612db8612db286612eab565b85612eba565b612ed3565b905092915050565b5f612dcf846128e6565b8284612ddb9190613b9d565b1115612dec57612deb6032612e9a565b5b612e0782612e02612dfc87612eab565b86612eba565b612ed3565b90509392505050565b5f5f612e30836020612e229190613b9d565b612e2b866128e6565b612ee2565b9050601f811115612e4657612e456032612e9a565b5b5f19816008021b835f1960801c861601511691505092915050565b60605f612e6d836128e6565b90505f612e7984612eab565b905060405192508183528181602085015e6020828401016040525050919050565b634e487b715f52806020526024601cfd5b5f5f1960801c82169050919050565b5f81835f1c612ec99190613b9d565b5f1b905092915050565b5f818360801b17905092915050565b5f5f612eee8484612efb565b9150508091505092915050565b5f5f5f8385039050848111159250612f1283612f1e565b81029150509250929050565b5f8115159050919050565b5f604051905090565b5f5ffd5b5f5ffd5b5f819050919050565b612f4c81612f3a565b8114612f56575f5ffd5b50565b5f81359050612f6781612f43565b92915050565b5f73ffffffffffffffffffffffffffffffffffffffff82169050919050565b5f612f9682612f6d565b9050919050565b612fa681612f8c565b8114612fb0575f5ffd5b50565b5f81359050612fc181612f9d565b92915050565b5f819050919050565b612fd981612fc7565b8114612fe3575f5ffd5b50565b5f81359050612ff481612fd0565b92915050565b5f5ffd5b5f5ffd5b5f5ffd5b5f5f83601f84011261301b5761301a612ffa565b5b8235905067ffffffffffffffff81111561303857613037612ffe565b5b60208301915083600182028301111561305457613053613002565b5b9250929050565b5f5f5f5f5f6080868803121561307457613073612f32565b5b5f61308188828901612f59565b955050602061309288828901612fb3565b94505060406130a388828901612fe6565b935050606086013567ffffffffffffffff8111156130c4576130c3612f36565b5b6130d088828901613006565b92509250509295509295909350565b5f602082840312156130f4576130f3612f32565b5b5f61310184828501612f59565b91505092915050565b5f8115159050919050565b61311e8161310a565b82525050565b5f6020820190506131375f830184613115565b92915050565b5f6020828403121561315257613151612f32565b5b5f61315f84828501612fb3565b91505092915050565b5f67ffffffffffffffff82169050919050565b61318481613168565b82525050565b5f60208201905061319d5f83018461317b565b92915050565b6131ac81612f8c565b82525050565b5f6020820190506131c55f8301846131a3565b92915050565b6131d481613168565b81146131de575f5ffd5b50565b5f813590506131ef816131cb565b92915050565b5f5f83601f84011261320a57613209612ffa565b5b8235905067ffffffffffffffff81111561322757613226612ffe565b5b60208301915083602082028301111561324357613242613002565b5b9250929050565b5f5f5f5f5f5f6080878903121561326457613263612f32565b5b5f61327189828a016131e1565b965050602087013567ffffffffffffffff81111561329257613291612f36565b5b61329e89828a01613006565b9550955050604087013567ffffffffffffffff8111156132c1576132c0612f36565b5b6132cd89828a016131f5565b935093505060606132e089828a01612fe6565b9150509295509295509295565b6132f681612f3a565b82525050565b5f60208201905061330f5f8301846132ed565b92915050565b5f5f5f6060848603121561332c5761332b612f32565b5b5f61333986828701612fb3565b935050602061334a86828701612fe6565b925050604061335b86828701612fb3565b9150509250925092565b5f5ffd5b5f601f19601f8301169050919050565b7f4e487b71000000000000000000000000000000000000000000000000000000005f52604160045260245ffd5b6133af82613369565b810181811067ffffffffffffffff821117156133ce576133cd613379565b5b80604052505050565b5f6133e0612f29565b90506133ec82826133a6565b919050565b5f67ffffffffffffffff82111561340b5761340a613379565b5b61341482613369565b9050602081019050919050565b828183375f83830152505050565b5f61344161343c846133f1565b6133d7565b90508281526020810184848401111561345d5761345c613365565b5b613468848285613421565b509392505050565b5f82601f83011261348457613483612ffa565b5b813561349484826020860161342f565b91505092915050565b5f67ffffffffffffffff8211156134b7576134b6613379565b5b602082029050602081019050919050565b5f6134da6134d58461349d565b6133d7565b905080838252602082019050602084028301858111156134fd576134fc613002565b5b835b8181101561354457803567ffffffffffffffff81111561352257613521612ffa565b5b80860161352f8982613470565b855260208501945050506020810190506134ff565b5050509392505050565b5f82601f83011261356257613561612ffa565b5b81356135728482602086016134c8565b91505092915050565b5f5f5f5f6080858703121561359357613592612f32565b5b5f6135a0878288016131e1565b945050602085013567ffffffffffffffff8111156135c1576135c0612f36565b5b6135cd87828801613470565b935050604085013567ffffffffffffffff8111156135ee576135ed612f36565b5b6135fa8782880161354e565b925050606061360b87828801612fe6565b91505092959194509250565b7f4e487b71000000000000000000000000000000000000000000000000000000005f52601160045260245ffd5b5f61364e82613168565b915067ffffffffffffffff820361366857613667613617565b5b600182019050919050565b5f819050919050565b61368d61368882612fc7565b613673565b82525050565b5f8160601b9050919050565b5f6136a982613693565b9050919050565b5f6136ba8261369f565b9050919050565b6136d26136cd82612f8c565b6136b0565b82525050565b5f8160c01b9050919050565b5f6136ee826136d8565b9050919050565b61370661370182613168565b6136e4565b82525050565b5f613717828a61367c565b60208201915061372782896136c1565b60148201915061373782886136c1565b60148201915061374782876136c1565b60148201915061375782866136f5565b60088201915061376782856136c1565b60148201915061377782846136f5565b60088201915081905098975050505050505050565b5f60608201905061379f5f83018661317b565b6137ac60208301856131a3565b6137b9604083018461317b565b949350505050565b6137ca8161310a565b81146137d4575f5ffd5b50565b5f815190506137e5816137c1565b92915050565b5f60208284031215613800576137ff612f32565b5b5f61380d848285016137d7565b91505092915050565b5f8151905061382481612f43565b92915050565b5f6020828403121561383f5761383e612f32565b5b5f61384c84828501613816565b91505092915050565b5f81905092915050565b5f61386a8385613855565b9350613877838584613421565b82840190509392505050565b5f61388f82848661385f565b91508190509392505050565b5f60ff82169050919050565b5f6138b18261389b565b91506138bc8361389b565b9250828203905060ff8111156138d5576138d4613617565b5b92915050565b5f8160011c9050919050565b5f5f8291508390505b60018511156139305780860481111561390c5761390b613617565b5b600185161561391b5780820291505b8081029050613929856138db565b94506138f0565b94509492505050565b5f826139485760019050613a03565b81613955575f9050613a03565b816001811461396b5760028114613975576139a4565b6001915050613a03565b60ff84111561398757613986613617565b5b8360020a91508482111561399e5761399d613617565b5b50613a03565b5060208310610133831016604e8410600b84101617156139d95782820a9050838111156139d4576139d3613617565b5b613a03565b6139e684848460016138e7565b925090508184048111156139fd576139fc613617565b5b81810290505b9392505050565b5f613a1482612fc7565b9150613a1f8361389b565b9250613a4c7fffffffffffffffffffffffffffffffffffffffffffffffffffffffffffffffff8484613939565b905092915050565b7f4e487b71000000000000000000000000000000000000000000000000000000005f52601260045260245ffd5b5f613a8b82612fc7565b9150613a9683612fc7565b925082613aa657613aa5613a54565b5b828204905092915050565b5f613abb82612fc7565b9150613ac683612fc7565b9250828202613ad481612fc7565b91508282048414831517613aeb57613aea613617565b5b5092915050565b7f4e487b71000000000000000000000000000000000000000000000000000000005f52603260045260245ffd5b5f819050919050565b613b39613b3482612f3a565b613b1f565b82525050565b5f613b4a8285613b28565b602082019150613b5a8284613b28565b6020820191508190509392505050565b5f613b7482612fc7565b9150613b7f83612fc7565b9250828203905081811115613b9757613b96613617565b5b92915050565b5f613ba782612fc7565b9150613bb283612fc7565b9250828201905080821115613bca57613bc9613617565b5b92915050565b5f82825260208201905092915050565b7f496e76616c6964207265636569707400000000000000000000000000000000005f82015250565b5f613c14600f83613bd0565b9150613c1f82613be0565b602082019050919050565b5f6020820190508181035f830152613c4181613c08565b9050919050565b7f4c6f6720696e646578206f7574206f6620626f756e64730000000000000000005f82015250565b5f613c7c601783613bd0565b9150613c8782613c48565b602082019050919050565b5f6020820190508181035f830152613ca981613c70565b9050919050565b7f496e76616c6964206c6f670000000000000000000000000000000000000000005f82015250565b5f613ce4600b83613bd0565b9150613cef82613cb0565b602082019050919050565b5f6020820190508181035f830152613d1181613cd8565b9050919050565b7f496e76616c696420656d697474657200000000000000000000000000000000005f82015250565b5f613d4c600f83613bd0565b9150613d5782613d18565b602082019050919050565b5f6020820190508181035f830152613d7981613d40565b9050919050565b7f496e76616c696420746f7069637320636f756e740000000000000000000000005f82015250565b5f613db4601483613bd0565b9150613dbf82613d80565b602082019050919050565b5f6020820190508181035f830152613de181613da8565b9050919050565b7f496e76616c6964206576656e74207369676e61747572650000000000000000005f82015250565b5f613e1c601783613bd0565b9150613e2782613de8565b602082019050919050565b5f6020820190508181035f830152613e4981613e10565b9050919050565b7f496e76616c6964206c6f672064617461206c656e6774680000000000000000005f82015250565b5f613e84601783613bd0565b9150613e8f82613e50565b602082019050919050565b5f6020820190508181035f830152613eb181613e78565b9050919050565b5f5ffd5b5f5ffd5b5f5ffd5b5f5f83356001602003843603038112613ee057613edf613eb8565b5b80840192508235915067ffffffffffffffff821115613f0257613f01613ebc565b5b602083019250600182023603831315613f1e57613f1d613ec0565b5b509250929050565b5f5ffd5b5f5ffd5b5f5f85851115613f4157613f40613f26565b5b83861115613f5257613f51613f2a565b5b6001850283019150848603905094509492505050565b5f82905092915050565b5f82821b905092915050565b5f613f898383613f68565b82613f948135612f3a565b92506020821015613fd457613fcf7fffffffffffffffffffffffffffffffffffffffffffffffffffffffffffffffff83602003600802613f72565b831692505b505092915050565b613fe58161389b565b8114613fef575f5ffd5b50565b5f8151905061400081613fdc565b92915050565b5f6020828403121561401b5761401a612f32565b5b5f61402884828501613ff2565b91505092915050565b7f4e487b71000000000000000000000000000000000000000000000000000000005f52602160045260245ffd5b5f6140688261389b565b91506140738361389b565b9250828201905060ff81111561408c5761408b613617565b5b9291505056fea26469706673582212202cb83e5c40c6fee5eb400bf35ec15cbed57115451b4985c500684685af449bb664736f6c634300081c0033","linkReferences":{}},"methodIdentifiers":{"BURN_EVENT_SIGNATURE()":"e2794565","TEMPO_BRIDGE()":"61b42522","acceptOwnership()":"79ba5097","addToken(address)":"d48bfca7","deposit(address,uint256,address)":"f45346dc","depositNonces(address)":"f961ade3","everSupportedTokens(address)":"49b01d25","isBurnSpent(bytes32)":"0e6e5580","isUnlocked(bytes32)":"3dadc1e1","lightClient()":"b5700e68","owner()":"8da5cb5b","pendingOwner()":"e30c3978","removeToken(address)":"5fa7b584","renounceOwnership()":"715018a6","spentBurnIds(bytes32)":"93363dbf","supportedTokens(address)":"68c4ac26","tempoChainId()":"548bed75","transferOwnership(address)":"f2fde38b","unlock(uint64,bytes,bytes[],uint256)":"baf9362e","unlockWithProof(bytes32,address,uint256,bytes)":"00398ad2"},"id":41}