{"abi":[{"type":"constructor","inputs":[{"name":"_lightClient","type":"address","internalType":"address"},{"name":"_tempoChainId","type":"uint64","internalType":"uint64"}],"stateMutability":"nonpayable"},{"type":"function","name":"BURN_ATTESTATION_DOMAIN","inputs":[],"outputs":[{"name":"","type":"bytes32","internalType":"bytes32"}],"stateMutability":"view"},{"type":"function","name":"BURN_EVENT_SIGNATURE","inputs":[],"outputs":[{"name":"","type":"bytes32","internalType":"bytes32"}],"stateMutability":"view"},{"type":"function","name":"TEMPO_BRIDGE","inputs":[],"outputs":[{"name":"","type":"address","internalType":"address"}],"stateMutability":"view"},{"type":"function","name":"acceptOwnership","inputs":[],"outputs":[],"stateMutability":"nonpayable"},{"type":"function","name":"addToken","inputs":[{"name":"token","type":"address","internalType":"address"}],"outputs":[],"stateMutability":"nonpayable"},{"type":"function","name":"deposit","inputs":[{"name":"token","type":"address","internalType":"address"},{"name":"amount","type":"uint256","internalType":"uint256"},{"name":"tempoRecipient","type":"address","internalType":"address"}],"outputs":[{"name":"depositId","type":"bytes32","internalType":"bytes32"}],"stateMutability":"nonpayable"},{"type":"function","name":"depositNonces","inputs":[{"name":"","type":"address","internalType":"address"}],"outputs":[{"name":"","type":"uint64","internalType":"uint64"}],"stateMutability":"view"},{"type":"function","name":"everSupportedTokens","inputs":[{"name":"","type":"address","internalType":"address"}],"outputs":[{"name":"","type":"bool","internalType":"bool"}],"stateMutability":"view"},{"type":"function","name":"isBurnSpent","inputs":[{"name":"burnId","type":"bytes32","internalType":"bytes32"}],"outputs":[{"name":"","type":"bool","internalType":"bool"}],"stateMutability":"view"},{"type":"function","name":"isUnlocked","inputs":[{"name":"burnId","type":"bytes32","internalType":"bytes32"}],"outputs":[{"name":"","type":"bool","internalType":"bool"}],"stateMutability":"view"},{"type":"function","name":"lightClient","inputs":[],"outputs":[{"name":"","type":"address","internalType":"address"}],"stateMutability":"view"},{"type":"function","name":"owner","inputs":[],"outputs":[{"name":"","type":"address","internalType":"address"}],"stateMutability":"view"},{"type":"function","name":"pendingOwner","inputs":[],"outputs":[{"name":"","type":"address","internalType":"address"}],"stateMutability":"view"},{"type":"function","name":"removeToken","inputs":[{"name":"token","type":"address","internalType":"address"}],"outputs":[],"stateMutability":"nonpayable"},{"type":"function","name":"renounceOwnership","inputs":[],"outputs":[],"stateMutability":"nonpayable"},{"type":"function","name":"spentBurnIds","inputs":[{"name":"","type":"bytes32","internalType":"bytes32"}],"outputs":[{"name":"","type":"bool","internalType":"bool"}],"stateMutability":"view"},{"type":"function","name":"supportedTokens","inputs":[{"name":"","type":"address","internalType":"address"}],"outputs":[{"name":"","type":"bool","internalType":"bool"}],"stateMutability":"view"},{"type":"function","name":"tempoChainId","inputs":[],"outputs":[{"name":"","type":"uint64","internalType":"uint64"}],"stateMutability":"view"},{"type":"function","name":"transferOwnership","inputs":[{"name":"newOwner","type":"address","internalType":"address"}],"outputs":[],"stateMutability":"nonpayable"},{"type":"function","name":"unlock","inputs":[{"name":"burnId","type":"bytes32","internalType":"bytes32"},{"name":"tempoHeight","type":"uint64","internalType":"uint64"},{"name":"originToken","type":"address","internalType":"address"},{"name":"recipient","type":"address","internalType":"address"},{"name":"amount","type":"uint64","internalType":"uint64"},{"name":"signatures","type":"bytes[]","internalType":"bytes[]"}],"outputs":[],"stateMutability":"nonpayable"},{"type":"function","name":"unlockWithProof","inputs":[{"name":"burnId","type":"bytes32","internalType":"bytes32"},{"name":"recipient","type":"address","internalType":"address"},{"name":"amount","type":"uint256","internalType":"uint256"},{"name":"proof","type":"bytes","internalType":"bytes"}],"outputs":[],"stateMutability":"nonpayable"},{"type":"event","name":"Deposited","inputs":[{"name":"depositId","type":"bytes32","indexed":true,"internalType":"bytes32"},{"name":"token","type":"address","indexed":true,"internalType":"address"},{"name":"depositor","type":"address","indexed":true,"internalType":"address"},{"name":"amount","type":"uint64","indexed":false,"internalType":"uint64"},{"name":"tempoRecipient","type":"address","indexed":false,"internalType":"address"},{"name":"nonce","type":"uint64","indexed":false,"internalType":"uint64"}],"anonymous":false},{"type":"event","name":"OwnershipTransferStarted","inputs":[{"name":"previousOwner","type":"address","indexed":true,"internalType":"address"},{"name":"newOwner","type":"address","indexed":true,"internalType":"address"}],"anonymous":false},{"type":"event","name":"OwnershipTransferred","inputs":[{"name":"previousOwner","type":"address","indexed":true,"internalType":"address"},{"name":"newOwner","type":"address","indexed":true,"internalType":"address"}],"anonymous":false},{"type":"event","name":"TokenAdded","inputs":[{"name":"token","type":"address","indexed":true,"internalType":"address"}],"anonymous":false},{"type":"event","name":"TokenRemoved","inputs":[{"name":"token","type":"address","indexed":true,"internalType":"address"}],"anonymous":false},{"type":"event","name":"Unlocked","inputs":[{"name":"burnId","type":"bytes32","indexed":true,"internalType":"bytes32"},{"name":"token","type":"address","indexed":true,"internalType":"address"},{"name":"recipient","type":"address","indexed":true,"internalType":"address"},{"name":"amount","type":"uint64","indexed":false,"internalType":"uint64"}],"anonymous":false},{"type":"error","name":"AmountTooLarge","inputs":[]},{"type":"error","name":"BurnAlreadySpent","inputs":[]},{"type":"error","name":"ECDSAInvalidSignature","inputs":[]},{"type":"error","name":"ECDSAInvalidSignatureLength","inputs":[{"name":"length","type":"uint256","internalType":"uint256"}]},{"type":"error","name":"ECDSAInvalidSignatureS","inputs":[{"name":"s","type":"bytes32","internalType":"bytes32"}]},{"type":"error","name":"HeaderNotFinalized","inputs":[]},{"type":"error","name":"InvalidBurnEvent","inputs":[]},{"type":"error","name":"InvalidProofFormat","inputs":[]},{"type":"error","name":"InvalidReceiptProof","inputs":[]},{"type":"error","name":"InvalidRecipient","inputs":[]},{"type":"error","name":"OwnableInvalidOwner","inputs":[{"name":"owner","type":"address","internalType":"address"}]},{"type":"error","name":"OwnableUnauthorizedAccount","inputs":[{"name":"account","type":"address","internalType":"address"}]},{"type":"error","name":"ReentrancyGuardReentrantCall","inputs":[]},{"type":"error","name":"SafeERC20FailedOperation","inputs":[{"name":"token","type":"address","internalType":"address"}]},{"type":"error","name":"ThresholdNotMet","inputs":[]},{"type":"error","name":"TokenNotSupported","inputs":[]},{"type":"error","name":"ZeroAmount","inputs":[]}],"bytecode":{"object":"0x60c03461012e57601f61153138819003918201601f19168301916001600160401b0383118484101761013257808492604094855283398101031261012e578051906001600160a01b038216820361012e57602001516001600160401b038116810361012e57331561011b57600180546001600160a01b03199081169091555f805433928116831782556040519492916001600160a01b03909116907f8be0079c531659141344cd1fd0a4f28419497f9722a3daafe3b4186f6b6457e09080a360017f9b779b17422d0df92223018b32b4d1fa46e071723d6817e2486d003becc55f005560805260a0526113ea90816101478239608051818181610593015281816109050152610bba015260a0518181816107e10152610e6f0152f35b631e4fbdf760e01b5f525f60045260245ffd5b5f80fd5b634e487b7160e01b5f52604160045260245ffdfe60806040526004361015610011575f80fd5b5f3560e01c8062398ad214610a655780630e6e55801461084257806322cc9b2c146108475780633dadc1e11461084257806349b01d2514610805578063548bed75146107c25780635fa7b5841461075d57806361b425221461073d57806368c4ac2614610700578063715018a61461069d57806379ba5097146106185780638da5cb5b146105f157806393363dbf146105c2578063b5700e681461057e578063b7b8fb5614610544578063d48bfca7146104c7578063e27945651461048d578063e30c397814610465578063f2fde38b146103f8578063f45346dc146101445763f961ade3146100ff575f80fd5b34610140576020366003190112610140576001600160a01b03610120610cb5565b165f52600460205260206001600160401b0360405f205416604051908152f35b5f80fd5b346101405760603660031901126101405761015d610cb5565b60243590610169610c9f565b91610172610de5565b6001600160a01b0382165f8181526002602052604090205460ff16156103e957811561037d576001600160a01b0384169283156103da57335f52600460205260405f20908154936001600160401b038516926001600160401b0384146103c65767ffffffffffffffff198616600185016001600160401b03161790556101f7826111f0565b60ff8116600681111561039b575061021961021461021f9261109b565b6110ae565b826110bf565b945b6001600160401b03861161038c576001600160401b03861695861561037d57604051926323b872dd60e01b5f52336004523060245260445260205f606481808a5af160015f511481161561035e575b836040525f6060521561034b57602098898401944686523060601b60408601526001600160601b03199060601b1660548501526001600160601b03199060601b1660688401526001600160401b0360c01b9060c01b16607c8301523360601b60848301526001600160401b0360c01b9060c01b166098820152608081526102f860a082610cdf565b51902093604051938452858401526040830152827fb546702a9c7a51ec8b31f8d5d4d59c7ca63a7ae9379228cced4c0ad499d10a3160603394a460015f5160206113955f395f51905f5255604051908152f35b85635274afe760e01b5f5260045260245ffd5b600181151661037457863b15153d151616610270565b833d5f823e3d90fd5b631f2a200560e01b5f5260045ffd5b630625040160e01b5f5260045ffd5b600611156103be576103b26102146103b89261108a565b826110dd565b94610221565b508094610221565b634e487b7160e01b5f52601160045260245ffd5b634e46966960e11b5f5260045ffd5b633dd1b30560e01b5f5260045ffd5b3461014057602036600319011261014057610411610cb5565b6104196111dd565b60018060a01b0316806001600160601b0360a01b600154161760015560018060a01b035f54167f38d16b8cac22d99fc7c124b9cd0de2d3fa1faef420bfe791d8c362d765e227005f80a3005b34610140575f366003190112610140576001546040516001600160a01b039091168152602090f35b34610140575f3660031901126101405760206040517ff27b61be7b446c751507cb9dcad23ed2f31d18a014e04722d31c39e7696409df8152f35b34610140576020366003190112610140576104e0610cb5565b6104e86111dd565b60018060a01b0316805f52600260205260405f20600160ff19825416179055805f52600360205260405f20600160ff198254161790557f784c8f4dbf0ffedd6e72c76501c545a70f8b203b30a26ce542bf92ba87c248a45f80a2005b34610140575f3660031901126101405760206040517fe22a8d88ee052e76b64bc28669ef2ac0efc9af364f5cd892de2fde5ac336ba378152f35b34610140575f366003190112610140576040517f00000000000000000000000000000000000000000000000000000000000000006001600160a01b03168152602090f35b34610140576020366003190112610140576004355f526005602052602060ff60405f2054166040519015158152f35b34610140575f366003190112610140575f546040516001600160a01b039091168152602090f35b34610140575f36600319011261014057600154336001600160a01b039091160361068a57600180546001600160a01b03199081169091555f805433928116831782556001600160a01b0316907f8be0079c531659141344cd1fd0a4f28419497f9722a3daafe3b4186f6b6457e09080a3005b63118cdaa760e01b5f523360045260245ffd5b34610140575f366003190112610140576106b56111dd565b600180546001600160a01b03199081169091555f80549182168155906001600160a01b03167f8be0079c531659141344cd1fd0a4f28419497f9722a3daafe3b4186f6b6457e08280a3005b34610140576020366003190112610140576001600160a01b03610721610cb5565b165f526002602052602060ff60405f2054166040519015158152f35b34610140575f3660031901126101405760405161bbbb60901b8152602090f35b3461014057602036600319011261014057610776610cb5565b61077e6111dd565b6001600160a01b03165f818152600260205260408120805460ff191690557f4c910b69fe65a61f7531b9c5042b2329ca7179c77290aa7e2eb3afa3c8511fd39080a2005b34610140575f3660031901126101405760206040516001600160401b037f0000000000000000000000000000000000000000000000000000000000000000168152f35b34610140576020366003190112610140576001600160a01b03610826610cb5565b165f526003602052602060ff60405f2054166040519015158152f35b6105c2565b346101405760c0366003190112610140576004356024356001600160401b0381169182820361014057610878610c9f565b6064356001600160a01b0381169491939190858103610140576084356001600160401b038116918282036101405760a435946001600160401b0386116101405736602387011215610140578560040135926001600160401b038411610140573660248560051b89010111610140576108ee610de5565b60405163641f566160e11b815260048101969096527f00000000000000000000000000000000000000000000000000000000000000006001600160a01b0316956020816024818a5afa908115610a5a575f91610a2b575b5015610a1c57875f52600560205260ff60405f205416610a0d576001600160a01b0389165f8181526003602052604090205490999060ff16156103e9576109d16020976109f3966109cb7dd1d5e5058f4a8ef648b12cb8f43ef9b03b3bf1683e292f34cbceee4ab85c9b6109c0878f886109ec9b8d92610e31565b926024369201610d2c565b91610f16565b885f526005875260405f20600160ff198254161790556110f0565b908761115c565b604051908152a460015f5160206113955f395f51905f5255005b63e8a4e57b60e01b5f5260045ffd5b631889062160e31b5f5260045ffd5b610a4d915060203d602011610a53575b610a458183610cdf565b810190610d14565b8b610945565b503d610a3b565b6040513d5f823e3d90fd5b34610140576080366003190112610140576024356001600160a01b0381169060043582820361014057606435916001600160401b03831161014057366023840112156101405782600401356001600160401b03811161014057830190602482019136831161014057610ad5610de5565b835f52600560205260ff60405f205416610a0d5760c0908590031261014057610b0060448501610ccb565b90610b0d60648601610e1d565b610b1960848701610e1d565b610b2560a48801610ccb565b9460c48801356001600160401b038111610140578801908060438301121561014057610b5c602491836044848c9601359101610d2c565b6001600160a01b0390941698013503610c90576001600160a01b0316879003610c90576001600160401b038416916001600160401b03604435168303610c905760405163641f566160e11b81526001600160401b03851660048201527f00000000000000000000000000000000000000000000000000000000000000006001600160a01b031690602081602481855afa908115610a5a575f91610c71575b5015610a1c57875f52600360205260ff60405f205416156103e95785610c556109f3946109ec93610c4f7dd1d5e5058f4a8ef648b12cb8f43ef9b03b3bf1683e292f34cbceee4ab85c9a878e60209c8f610e31565b90610f16565b875f526005865260405f20600160ff19825416179055886110f0565b610c8a915060203d602011610a5357610a458183610cdf565b8a610bfa565b63093e68ed60e41b5f5260045ffd5b604435906001600160a01b038216820361014057565b600435906001600160a01b038216820361014057565b35906001600160401b038216820361014057565b90601f801991011681019081106001600160401b03821117610d0057604052565b634e487b7160e01b5f52604160045260245ffd5b90816020910312610140575180151581036101405790565b929190926001600160401b038411610d00578360051b6020604051610d5382840182610cdf565b8096815201908201918383116101405780915b838310610d74575050505050565b82356001600160401b03811161014057820185601f82011215610140578035916001600160401b038311610d0057604051610db9601f8501601f191660200182610cdf565b8381528760208585010111610140575f6020858196828097018386013783010152815201920191610d66565b60025f5160206113955f395f51905f525414610e0e5760025f5160206113955f395f51905f5255565b633ee5aeb560e01b5f5260045ffd5b35906001600160a01b038216820361014057565b93919290926040519360208501957fe22a8d88ee052e76b64bc28669ef2ac0efc9af364f5cd892de2fde5ac336ba3787526001600160401b0360c01b7f000000000000000000000000000000000000000000000000000000000000000060c01b16604087015260488601526001600160401b0360c01b9060c01b1660688501526001600160401b0360c01b4660c01b1660708501526001600160601b03199060601b1660788401526001600160601b03199060601b16608c8301526001600160401b0360c01b9060c01b1660a082015260888152610f1060a882610cdf565b51902090565b604051630859bc9d60e31b815292936001600160a01b0390911691602084600481865afa938415610a5a575f94611056575b5083855110611047575f945f925f5b825181101561103957610f7f610f7660208360051b8601015186611264565b9092919261129e565b6001600160a01b038181169616861115610ffc57946040519063facd743b60e01b825260048201526020816024818a5afa908115610a5a575f91610fde575b50610fcc575b600101610f57565b965f1981146103c65760010196610fc4565b610ff6915060203d8111610a5357610a458183610cdf565b5f610fbe565b60405162461bcd60e51b815260206004820152601560248201527414da59db985d1d5c995cc81b9bdd081cdbdc9d1959605a1b6044820152606490fd5b509593505050501061104757565b6359fa4a9360e01b5f5260045ffd5b9093506020813d602011611082575b8161107260209383610cdf565b810103126101405751925f610f48565b3d9150611065565b60ff166006039060ff82116103c657565b60ff6005199116019060ff82116103c657565b60ff16604d81116103c657600a0a90565b81156110c9570490565b634e487b7160e01b5f52601260045260245ffd5b818102929181159184041417156103c657565b6110f9906111f0565b9060ff8216600681111561112957506001600160401b0361111f6102146111269461109b565b91166110dd565b90565b60061161113e576001600160401b0391501690565b6001600160401b036111556102146111269461108a565b91166110bf565b916040519163a9059cbb60e01b5f5260018060a01b031660045260245260205f60448180865af19060015f51148216156111bc575b6040521561119c5750565b635274afe760e01b5f9081526001600160a01b0391909116600452602490fd5b9060018115166111d457823b15153d15161690611191565b503d5f823e3d90fd5b5f546001600160a01b0316330361068a57565b60405163313ce56760e01b815290602090829060049082906001600160a01b03165afa5f9181611226575b506111265750601290565b9091506020813d60201161125c575b8161124260209383610cdf565b81010312610140575160ff8116810361014057905f61121b565b3d9150611235565b81519190604183036112945761128d9250602082015190606060408401519301515f1a90611312565b9192909190565b50505f9160029190565b60048110156112fe57806112b0575050565b600181036112c75763f645eedf60e01b5f5260045ffd5b600281036112e2575063fce698f760e01b5f5260045260245ffd5b6003146112ec5750565b6335e2f38360e21b5f5260045260245ffd5b634e487b7160e01b5f52602160045260245ffd5b91907f7fffffffffffffffffffffffffffffff5d576e7357a4501ddfe92f46681b20a08411611389579160209360809260ff5f9560405194855216868401526040830152606082015282805260015afa15610a5a575f516001600160a01b0381161561137f57905f905f90565b505f906001905f90565b5050505f916003919056fe9b779b17422d0df92223018b32b4d1fa46e071723d6817e2486d003becc55f00a26469706673582212201acccab9fb5e871197ac87760951f51c73afdfda0a728eaa78462b4f4ead011064736f6c634300081c0033","linkReferences":{}},"methodIdentifiers":{"BURN_ATTESTATION_DOMAIN()":"b7b8fb56","BURN_EVENT_SIGNATURE()":"e2794565","TEMPO_BRIDGE()":"61b42522","acceptOwnership()":"79ba5097","addToken(address)":"d48bfca7","deposit(address,uint256,address)":"f45346dc","depositNonces(address)":"f961ade3","everSupportedTokens(address)":"49b01d25","isBurnSpent(bytes32)":"0e6e5580","isUnlocked(bytes32)":"3dadc1e1","lightClient()":"b5700e68","owner()":"8da5cb5b","pendingOwner()":"e30c3978","removeToken(address)":"5fa7b584","renounceOwnership()":"715018a6","spentBurnIds(bytes32)":"93363dbf","supportedTokens(address)":"68c4ac26","tempoChainId()":"548bed75","transferOwnership(address)":"f2fde38b","unlock(bytes32,uint64,address,address,uint64,bytes[])":"22cc9b2c","unlockWithProof(bytes32,address,uint256,bytes)":"00398ad2"},"id":34}